:020000040020DA
:10200000684500208D22200073E0200071E0200050
:1020100071E0200071E0200071E02000000000006D
:1020200000000000000000000000000071E020003F
:1020300071E020000000000071E0200075E2200047
:1020400097E220009DE22000A3E22000A9E2200008
:10205000000000007BE2200081E2200071E020000F
:1020600071E02000000000000000000000000000FF
:10207000000000000000000071E0200000000000EF
:10208000000000000000000071E0200071E020006E
:1020900071E0200071E0200071E0200071E020007C
:1020A00071E0200071E0200071E0200071E020006C
:1020B00071E0200071E0200071E0200071E020005C
:1020C00071E0200071E0200071E0200071E020004C
:1020D00071E020000000000000000000000000008F
:1020E00000000000000000000000000000000000F0
:1020F00000000000000000003D5520004D5520006C
:1021000000000000000000000000000000000000CF
:1021100000000000000000000000000000000000BF
:1021200000000000000000000000000000000000AF
:10213000000000000000000000000000000000009F
:10214000000000000000000000000000000000008F
:10215000000000000000000000000000000000007F
:10216000000000000000000000000000000000006F
:10217000000000000000000000000000000000005F
:10218000000000000000000000000000000000004F
:10219000000000000000000000000000000000003F
:1021A000000000000000000000000000000000002F
:1021B000000000000000000000000000000000001F
:1021C000000000000000000000000000000000000F
:1021D00000000000000000000000000000000000FF
:1021E00000000000000000000000000000000000EF
:1021F00000000000000000000000000000000000DF
:1022000000000000000000000000000000000000CE
:1022100000000000000000000000000000000000BE
:1022200000000000000000000000000000000000AE
:10223000000000000000000000000000000000009E
:10224000000000000000000000000000000000008E
:10225000000000000000000000000000000000007E
:10226000000000000000000000000000000000006E
:1022700071E020002554200049542000054B200027
:10228000595520000546200071E02000FF22482417
:1022900008B5084B08481A60084AE3690849121A49
:1022A00098470848084A0021A369121A984701F084
:1022B0005DFBFEE7B4200D404000002061060020D9
:1022C0005404210068060020673D002010B5044634
:1022D000436E9847034BE06E0022BDE8104019782A
:1022E00004F00ABB543D00202DE9F04F0C46904607
:1022F0001F4685B093B391F8B0341BB101F59560DA
:102300000BF0D2FE94F8B13463BB98F80030012F83
:1023100084F8B134D4F8AC3403F10103C4F8AC341C
:102320001CD0012594F8B73483BB08EB0500AF42FD
:1023300014D9D4F8AC3494F8B82401330132052B05
:1023400010F8011B05F10105C4F8AC3484F8B82479
:102350000AD9002280212046FFF7B8FF002005B0EF
:10236000BDE8F08F0025DDE794F8B634B4F8B26428
:1023700001F07F0202FB0362DB0184F8B6340B0636
:10238000A4F8B224D3D4012384F8B734B4F8B22427
:10239000B2F5007F40F2CD8094F8B13403F0F00341
:1023A000302B00F0C680D4F8AC3401321F44974281
:1023B000C4F8AC74D2D3012384F8B034CEE7302B08
:1023C00055D194F8BF36002B51D194F8BE36B3B92D
:1023D00018F80530691C1B02501CB942A4F8BA3623
:1023E000C4F8AC0480F0A38018F8011002320B434B
:1023F0000235A4F8BA36C4F8AC2484F8BE96B4F812
:10240000BEB6BBF1010F32D1B4F8BC06B4F8BA665F
:10241000791B361A8E4228BF0E4600F2C460B2B253
:1024200008EB0501204401920BF026F9D4F8AC34F6
:10243000019AB4F8BC16154431441A44B4F8BA36BB
:1024400089B29942C4F8AC24A4F8BC160DD1631823
:1024500084F8BFB683F8C4A6B4F8B234023B591A64
:1024600089B2A4F81017A4F8121784F80E9794F8FC
:10247000B9047A1BC0F50076964228BF164600F2D2
:10248000BA40324608EB050120440BF0F5F894F809
:10249000B924D4F8AC34324484F8B924002233444B
:1024A000C4F8AC343544D1B28E4202F10102FAD8FC
:1024B000BD4205D3B4F8B22401329342FFF44EAFCB
:1024C000B4F8B204D4F8AC2494F8B11401308242C8
:1024D00001F0F003FFF473AF402B4FF0010268D01E
:1024E0002CD8202B48D0302B7FF465AF002504F288
:1024F000BA43C4F8083794F8B9340421A4F80C3767
:102500002046A4F8125704F5D862FFF7DFFE94F8CE
:102510000E37012BB4F8123708BF84F80E57002B82
:102520007FF449AF04F595600BF0BEFD43E70D461F
:102530009DE74FF001094FF0000AC1E7902B46D00C
:1025400009D8602B04D001F0D00150297FF433AFBB
:102550000022842129E0B02B7FF42DAF94F8BB3406
:1025600084F8992294F8BA24032143EA0223A4F8B8
:10257000B43404F2B44218E094F8BB342BB1822195
:10258000204604F2BB42FFF7A1FE0123E18A194A6B
:1025900084F89932C901234604F1180004F07EF84A
:1025A00000220823114684F860302046FFF78EFE93
:1025B00001E794F8BB3484F8992294F8BA240521F1
:1025C00043EA0223A4F8B43404F2B442EDE794F8E9
:1025D000BB3484F8992294F8BA24022143EA0223F6
:1025E00094F8BC24ADF80C308DF80E20A4F8B43467
:1025F00003AADAE7F925200010B590F83830024632
:102600008BB1022300F22C7480F8603020460CF06D
:10261000C7F8204607F0BAFB2046BDE81040342238
:1026200000210BF005B9034B03481978BDE81040B1
:1026300004F062B92C23002070040020052330B57B
:10264000002580F86030012385B00446A0F868308A
:10265000A0F89C5280F8385000F595600BF024FDEE
:102660000E4B84F8745203930D4B04F22C750293B5
:102670004FF4007304F1740221460092284604F2DC
:10268000A622019307F004FB2846B4F8282704F596
:10269000E36105B0BDE8304007F032BBA52620005D
:1026A000E922200013B5032A0C468DF807201DD817
:1026B00002B31E4B0A461E48197804F01DF9032385
:1026C00004F1180084F8603004F02AF80121204653
:1026D0000DF10702FFF7FAFD20460BF0EFFC637DDA
:1026E000012B05D12046FFF7A9FF01E0042A0ED0F7
:1026F00002B010BD062381F86030012381F87432E6
:102700000C4B0A460A48197804F0F6F8F0E7B1F8DD
:102710004E372BB9012381F8743201F174030B6732
:1027200004F1180003F0E0FFE2E700BF27230020D8
:10273000700400202923002038B51D4C2578002D79
:1027400034D104F077F81B4B18701B4B187004F051
:1027500071F81A4B187004F06DF8194B187004F0EA
:1027600069F8184B187004F065F8174B187004F0EE
:1027700061F8164B187004F05DF8154B187004F0F2
:1027800059F8144B187004F055F8134B1870134B8C
:10279000187004F04FF8124B187012480BF080FEBE
:1027A0002946114804F0D0F80123237038BD00BF3A
:1027B000262300202A230020312300202923002063
:1027C0002B2300202E2300202F2300202D23002048
:1027D0002C230020543D00202723002030230020FC
:1027E000282300207C06002070040020F8B51F4636
:1027F000137804460E46154633B34FF4EC620021BD
:102800000BF016F8294604F10C000BF0BEFC002575
:102810000123BDF818206375A4F8A422A4F8683039
:1028200004F595606766E666A4F89C5284F8385013
:102830000BF03AFC84F87452FFF77EFF0348214600
:102840000BF04EFE2846F8BD8220FCE77C060020F7
:102850007FB50446084694F8601003291ED8E38229
:1028600004F17403236700236D4684F89932237DB5
:10287000294643F00203A4F828272375C4F8140757
:1028800004F5E3660BF098FF95E80F0086E80F006B
:10289000044B22461978044804F02EF8002004B0B6
:1028A00070BD00BF2A2300207004002090F8603023
:1028B0000246082B07D1092380F86030024B0348F9
:1028C000197804F019B870472B23002070040020F9
:1028D0002DE9F3418DF8071040F2B941038806460F
:1028E0008B42154600F0F4832BD840F299418B427D
:1028F00000F0BF800BD8002B00F0CB8540F2824265
:10290000934241D000230320338000F0C6BD40F243
:10291000A7418B42F6D1664B9DF807101B788B427E
:1029200000F0AD80634B1B788B4200F21381624B49
:102930001B788B42C0F00E81604B186803F0DCFFFF
:1029400008E140F2D3418B4200F04E85B3F59C6F15
:1029500000F0528640F2C6418B42D3D1544B9DF8D1
:1029600007101B788B4200F08A80524B1B788B42F9
:1029700000F24F81504B1B788B42C0F04A814F4B85
:10298000186803F0B9FF44E1494B9DF807201B7814
:102990009A4207D14A4B28461D600A2385F86030C9
:1029A0000BF08CFB474B9DF807201B789A4204D113
:1029B000434B28461D60FFF741FE434B9DF807201F
:1029C0001B789A4240F0B2803D4B1D60B5F8A432AE
:1029D000A5F8543795F87432012B40F0A7800023F6
:1029E000A5F89C32364F3C68B4F89C32002B6DD071
:1029F000A3F5CA739AB2352A00F29580352B00F2FE
:102A00009280DFE813F03201DF0190009000F801BE
:102A100002020C0216022002390243024D02570242
:102A20006102900090006B02A402AD029000B60219
:102A3000BF029B02900090009000900090009000D8
:102A400090009000C802D202DC029000900090003A
:102A50009000E6020D0304039000900090009000A7
:102A600090009000900090009000900090009000E6
:102A7000C8010F4B9DF807101B788B420AD10A2220
:102A80000F4B02201B6883F860200022A3F89C22D1
:102A900000F003BD074B1B788B42A3D8064B1B7875
:102AA0008B429FD3054B186803F026FF9AE700BFBF
:102AB000272300203123002030230020E8080020B5
:102AC000780600202A23002029230020102384F8E0
:102AD0007832238A03B10233B4F854200C3302B1A4
:102AE00002329918B4F85C3003B10233CA18B4F852
:102AF000403003B102331344B4F8482002B102322B
:102B00001A44C4F87C2204F5217104F520700BF0FE
:102B1000B3FA94F88432042B40F2AC800022812175
:102B20002046FFF7D3FB0023A4F89C32C94B9DF845
:102B300007101B7899422BD1C74B1D6095F8603068
:102B4000092B25D195F87432012B40F0BC8200236B
:102B5000A5F89C32C04F3C68B4F89C32B3F5F37FC3
:102B600000F09D8200F26882002B00F07C8240F22F
:102B7000E512934200F074820023A4F89C32386876
:102B80000BF09CFA012138680DF10702FFF79EFB5C
:102B9000B24B9DF807201B789A4224D1AE4B1D60A2
:102BA00095F87432012B1ED195F86030082B1AD19C
:102BB0000023A5F89C3240F2D321A74F3C68B4F81B
:102BC0009C328B4200F0D582B3F5357F80F096823F
:102BD000002B00F0AB8240F2D222934200F0A3829D
:102BE0000023A4F89C329E4B9DF807201B789A4244
:102BF00040F0F282984B1D6095F87432012B40F042
:102C0000EB8295F86030082B40F0E6820023A5F8AF
:102C10009C32914B1C689846B4F89C72002F00F0CF
:102C2000C282A7F50477BBB2142B00F27483142F71
:102C300000F27183DFE817F0100377036F036F036F
:102C40006F03900399036F03A203AB03B4036F03F5
:102C5000BD036F036F036F036F036F036F036F0396
:102C600060034FF4CA73A4F89C3294F87432002BBA
:102C700000F0AD80204694F878120BF04FFA00284F
:102C8000EFD1204694F8842204F520710BF056FA17
:102C9000002840F09380002120460BF03FFA0028E6
:102CA00040F0A580062120460BF038FA002840F0BD
:102CB000A880062220466B490BF040FA002840F01D
:102CC000AA80032120460BF029FA002840F0AD80AD
:102CD0002046217D0BF022FA002840F0B080E18AE6
:102CE0002046090A0BF01AFA002840F0C18020465D
:102CF000A17D0BF013FA002840F0C480002120468B
:102D00000BF00CFA002840F0C7802046217C0BF025
:102D100005FA002840F0CA802046228AE1680BF0BC
:102D20000DFA002840F0CC80237D5A0700F1DB80AB
:102D300094F91430002B17DA002120460BF0EEF93D
:102D4000002840F02481204694F854100BF0E6F956
:102D5000002840F026812046B4F85420216D0BF065
:102D6000EDF9002840F02781237D5B0600F13681D4
:102D700020460BF0C2F907234FF4A06184F86030BD
:102D8000201D0BF06DFB04F595600BF08DF940F202
:102D9000C913A4F89C3294F8993204F10408012B69
:102DA00040F0438140460BF06DFB10B12046FFF729
:102DB0007DFD04F595600BF077F9B4E640F29513CC
:102DC000A4F89C3294F87432002B7FF45AAF3B681D
:102DD00093F860300A2B3FF4A9AE234B00221978F8
:102DE000224B186803F088FD40F2994353E34FF4F7
:102DF000CC73A4F89C3294F87432002B7FF44BAF60
:102E0000E5E740F29913A4F89C3294F87432002B51
:102E10007FF448AFDBE74FF4CD73A4F89C3294F80D
:102E20007432002B7FF445AFD1E740F29B13A4F836
:102E30009C3294F87432002B7FF443AFC7E74FF411
:102E4000CE73A4F89C3294F87432002B7FF440AF18
:102E5000BDE700BF2B230020780600202C23002094
:102E60002E230020D0FB200028230020E80800208B
:102E700040F29D13A4F89C3294F87432002B7FF436
:102E80002EAFA4E74FF4CF73A4F89C3294F87432B9
:102E9000002B7FF42CAF9AE740F29F13A4F89C32EA
:102EA00094F87432002B7FF429AF90E74FF4D0737D
:102EB000A4F89C3294F87432002B7FF426AF86E796
:102EC00040F2A113A4F89C3294F87432002B7FF4E2
:102ED00023AF7CE74FF4D273A4F89C3294F8743299
:102EE000002B3FF474AF002120460BF017F90028A7
:102EF000F0D1204694F840100BF010F918BB204692
:102F0000B4F84020E16B0BF019F928BB00212046F2
:102F10000BF004F948BB204694F848100BF0FEF87B
:102F200060BB2046B4F84820616C0BF007F900281C
:102F30003FF4FEAE4FF4D573A4F89C3294F874328B
:102F4000002BEED143E740F2A513A4F89C3294F88D
:102F50007432002BCDD13AE74FF4D373A4F89C32EE
:102F600094F87432002BCAD131E74FF4D473A4F82B
:102F70009C3294F87432002BC8D128E740F2A91390
:102F8000A4F89C3294F87432002BC4D11FE740F2AD
:102F9000B313A4F89C3294F87432002B7FF4CCAEB7
:102FA00015E74FF4DA73A4F89C3294F87432002BCE
:102FB0007FF4C9AE0BE740F2B513A4F89C3294F845
:102FC0007432002B7FF4C7AE01E74FF4DD73A4F831
:102FD0009C3294F87432002B3FF4F9AE0021204665
:102FE0000BF09CF80028F0D1204694F85C100BF010
:102FF00095F888B92046B4F85C20A16D0BF09EF8D6
:1030000000283FF4B5AE4FF4DE73A4F89C3294F878
:103010007432002BEED1DAE640F2BB13A4F89C32F6
:1030200094F87432002BDFD1D1E640460BF02AFA37
:1030300000287FF4B7AECAE6B3F5F87F7FF49CAD05
:1030400094F87432002B7FF497AD201D0BF01AFA20
:1030500000287FF491AD26E040F2E513A4F89C32FD
:1030600094F87432FBB1E02120460BF057F80028A9
:10307000F2D1002120460BF051F860B920460BF048
:103080003CF84FF48071201D0BF0EAF94FF4F8730F
:10309000A4F89C32D4E74FF4F373A4F89C3294F86C
:1030A0007432002BE5D13B6893F860300A2B3FF473
:1030B00066ADC24B00221978C14B186803F01CFCA6
:1030C00040F2A743E7E12A46BE4803F015FC5FE55E
:1030D000BD4B9DF807101B788B423FF4D0ACBB4B27
:1030E0001B788B423FF667ADB94B1B788B42FFF4E0
:1030F00062ADB34B186803F0FFFB5CE540F2DE22E3
:1031000093427FF46DAD94F8B034002B45D004F5B4
:1031100095600AF0C9FF002384F8383060E540F27A
:10312000D223A4F89C3294F8743233B3C0212046E1
:103130000AF0F4FF0028F2D1002120460AF0EEFF49
:1031400098B920460AF0D9FF012304F5956084F868
:1031500038300AF0A9FF4FF4A061201D0BF080F970
:1031600040F2DE23A4F89C32CDE740F2D323A4F84A
:103170009C3294F87432002BDED13B6893F86030B7
:10318000082B7FF430AD8D4B002219788C4B1868DA
:1031900003F0B2FB40F2B9437DE1201D0BF072F960
:1031A0000028B4D1E9E78223B4F88C2284F878327D
:1031B0000532C4F87C2204F5217104F520700AF070
:1031C0005BFF94F88432042B4AD93A468121204689
:1031D000FFF77CF8A4F89C727E4B9DF807201B78C3
:1031E0009A4240F030817C4B1D6095F87432012B7F
:1031F00040F0298195F86030082B40F024810023AD
:10320000A5F89C32744B1C689846B4F89C72002F49
:1032100000F00081A7F24F27BBB2122B00F29C8175
:10322000122F00F29981DFE817F03F019F0197010B
:103230009701B801C1019701CA01D301DC019701CF
:1032400097019701970197019701970197018801CD
:103250004FF40473A4F89C3294F87432002B66D0B7
:10326000204694F878120AF059FF0028F0D1204641
:1032700094F8842204F520710AF060FF00284ED1F2
:10328000002120460AF04AFF002861D1204694F828
:1032900086120AF043FF002863D1B4F88C1220464E
:1032A000090A0AF03BFF002864D1204694F88C12EA
:1032B0000AF034FF002866D12046B4F88C22D4F8F6
:1032C00088120AF03BFF002866D1204694F8981235
:1032D0000AF024FF002868D120460AF00EFF4FF4C0
:1032E000A061201D0BF0BCF804F595600AF0DCFE2F
:1032F0004FF40973A4F89C3294F89932271D012BDE
:103300006CD138460BF0BEF804F595600AF0CCFE9F
:10331000002384F86A300023A4F89C325CE740F272
:103320001123A4F89C3294F87432002B9FD1D8F862
:10333000003093F86030082B7FF44EAF1F4B002213
:1033400019781F4B186803F0D7FA40F2C643A2E081
:1033500040F21523A4F89C3294F87432002B8FD1DC
:10336000E5E740F21623A4F89C3294F87432002B5F
:103370008CD1DCE74FF40673A4F89C3294F87432D5
:10338000002B8AD1D3E740F21923A4F89C3294F899
:103390007432002B89D1CAE740F21A23A4F89C3278
:1033A00094F87432002B87D1C1E74FF40773A4F867
:1033B0009C3294F87432002B87D1B8E72823002080
:1033C000E80800207004002027230020312300207B
:1033D000302300202F2300207806002038460BF0F1
:1033E00051F800288DD1A2E7BF4B9DF807101B783C
:1033F0008B423FF444ABBD4B1B788B423FF602AF90
:10340000BB4B1B788B42FFF4FDAEBA4B186803F040
:1034100073FAF7E6A223B4F88C2284F878320432E7
:10342000C4F87C2204F5217104F520700AF024FE12
:1034300094F88432042B3BD93A4681212046FEF78A
:1034400045FFA4F89C72AC4B9DF807201B789A426C
:103450001FD1AA4B1D6095F87432012B19D195F834
:103460006030082B15D10023A5F89C32A34D2C68A1
:10347000B4F89C32B3F5287F00F2F88040F2922233
:10348000934200F2CF80002B00F0FF800023A4F8CD
:103490009C3240F282430120338002B0BDE8F081CB
:1034A00040F24F23A4F89C3294F87432002B5FD082
:1034B000204694F878120AF031FE0028F0D1204618
:1034C00094F8842204F520710AF038FE002847D1D0
:1034D000002120460AF022FE00285AD1204694F806
:1034E00086120AF01BFE00285CD1B4F88C1220462C
:1034F000090A0AF013FE00285DD1204694F88C12C8
:103500000AF00CFE00285FD12046B4F88C22D4F8D3
:1035100088120AF013FE00285FD120460AF0EDFD64
:103520004FF4A061201D0AF09BFF04F595600AF09E
:10353000BBFD40F26123A4F89C3294F89932271D18
:10354000012B53D138460AF09DFF04F595600AF02F
:10355000ABFD002384F86A300023A4F89C3272E7A4
:103560004FF41473A4F89C3294F87432002BA6D153
:10357000D8F8003093F86030082B7FF464AF604BCC
:10358000002219785B4B186803F0B6F940F2D34378
:1035900081E740F25323A4F89C3294F87432002B54
:1035A00096D1E5E74FF41573A4F89C3294F8743281
:1035B000002B93D1DCE740F25623A4F89C3294F818
:1035C0007432002B91D1D3E740F25723A4F89C32F8
:1035D00094F87432002B90D1CAE74FF41673A4F814
:1035E0009C3294F87432002B8ED1C1E738460AF031
:1035F00049FF0028A6D1BBE73B4B9DF807101B787D
:103600008B423FF43CAA394B1B788B423FF62EAFDE
:10361000374B1B788B42FFF429AF364B186803F009
:103620006BF923E7A3F293230D2B3FF62FAF01A2F3
:1036300052F823F00D372000B93720008D342000D8
:103640008D342000E9372000FB3720000D382000A2
:103650008D3420008D3420001F3820004938200090
:103660008D3420008D3420005B38200040F2B222DF
:1036700093427FF40BAF94F89932271D012B40F051
:10368000FC8038460AF0FEFE8AE094F8982294F80E
:103690009A12530043F03003DBB2012984F87832E8
:1036A00008BF43F00103D4F8941208BF84F87832BD
:1036B000B4F88C320B44A2B90233C4F87C32D4F88B
:1036C0007C2204F5217104F520700AF0D5FC94F8F1
:1036D0008432042B1ED9002281212046FEF7F6FDFC
:1036E000D4E60433E9E700BF27230020312300207C
:1036F00030230020E80800202D2300207806002039
:103700002823002040F29323A4F89C3294F87432CA
:10371000002B55D0204694F878120AF0FFFC0028C0
:10372000F0D1204694F8842204F520710AF006FDB9
:1037300000283DD1B4F88C122046090A0AF0EEFCAC
:1037400000284DD1204694F88C120AF0E7FC00289E
:103750004FD12046B4F88C22D4F888120AF0EEFC3F
:1037600000284FD194F89832002B5CD12046B4F851
:103770009422D4F890120AF0E1FC002869D1204686
:103780000AF0BBFC4FF4A061201D0AF069FE94F81A
:103790009822002A66D13C4BE06E197803F0ACF811
:1037A00004F595600AF080FC002384F86A306DE629
:1037B0004FF42573A4F89C3294F87432002BB0D1E6
:1037C0002B6893F86030082B7FF463AE2F4B0022F8
:1037D00019782F4B186803F08FF84FF49C635AE662
:1037E00040F29723A4F89C3294F87432002BA1D1B4
:1037F000E6E74FF42673A4F89C3294F87432002B59
:10380000A0D1DDE740F29923A4F89C3294F87432F9
:10381000002B9ED1D4E74FF42773A4F89C3294F880
:103820007432002BCCD0002120460AF077FC00280F
:10383000F1D1204694F886120AF070FC002895D049
:1038400040F29D23A4F89C3294F87432002BF0D1FE
:10385000B6E74FF42873A4F89C3294F87432002B26
:1038600084D1ADE7012A9BD104F595600AF01CFCD8
:1038700040F2B223A4F89C32FDE638460AF002FE7C
:1038800000287FF4FEAE9BE7543D00202823002053
:10389000E808002070B504461E4694F860301046D3
:1038A000082B1FD194F86A500123EDB9B4F86810C1
:1038B00084F86A30023189B2A4F86810A4F886123C
:1038C000C4F888220AF004F8084BA4F88C022246B7
:1038D0001978074884F8986284F8995203F00CF834
:1038E000284670BD8125FBE71D46F9E72E23002001
:1038F0007004002070B504461E4694F860301046EF
:10390000082B2AD194F86A50012345BBB4F86810FB
:1039100084F86A3002319DF8183089B2A4F8681032
:10392000A4F8861284F89A32C4F8882209F0D0FFED
:10393000049BA4F88C02C4F894329DF814302246FB
:1039400084F89832074B08481978C4F8906284F8D4
:10395000995202F0D1FF284670BD8125FBE71D4634
:10396000F9E700BF2D230020700400202DE9F3416A
:1039700000F072FF01F064F800F0C8FF00F0BAFD3B
:103980000AF06CFD01F054F800F0C6F801200AF0CE
:1039900006FC02F057FF00F04BFF002000F072FE23
:1039A000012000F06FFE4849002000F02BFF03F0DB
:1039B00073F80AF068FC04200AF0F1FB43480AF0AF
:1039C00090FC43480AF08DFC00F032FD002003F02B
:1039D0000FF901F04DFD00213E4802F0B5FF02F065
:1039E00027FE0AF00AFC01F0AFF801F0C7F808F072
:1039F000CDFA0821684601F0E1FD9DF806309DF8FA
:103A00000760354C46EA03266B4603CB20606160B5
:103A1000324802F021F900272546DFF8F8804046B9
:103A200014F8011B013702F017F9072FF7D12C4FBB
:103A3000E9792C4802F010F9FC6A4AF6CD310220EF
:103A4000A04731460320A0471A210120A04769461C
:103A500008227B6B0B209847234802F0FDF8234B8C
:103A600018680AF03EFC224802F0F6F8214B18686C
:103A70000AF037FC204802F0EFF8204B18680AF0F3
:103A800030FC1F4A2B6813606B68536007F0A8FF77
:103A900000211C4802F058FF00211B4802F054FF8F
:103AA0001A4B01219B68812098470AF0ACFC18480A
:103AB0000AF09FFC00F0C2FE02200AF070FB00F04A
:103AC000C3FE02F0D7FEFAE7516A2000E4FB2000B3
:103AD00000FC2000C80400205F3D002025FC2000E1
:103AE0008CF920008E03210049FC200054FA2000AC
:103AF00050FC20006CFA200057FC200088FA2000BF
:103B0000403300207C050020F8040020F4F8200059
:103B1000B8FA200043FC200008B500F03DF900226F
:103B2000014B1A7008BD00BF32230020024B1A78E7
:103B30001043187000F054B932230020034A137860
:103B400023EA0000107000F04BB900BF32230020C0
:103B500008B50B4B1B7803420FD020280BD004284C
:103B60000BD10220074B80211A7800F093FF20EA46
:103B7000E07000B208BD0520F4E74FF00040F9E71F
:103B80003423002033230020802810B50C4605D0B4
:103B9000B0F5807F29D04FF0004025E08B1E222B0E
:103BA000F9D8184A136823EA0103136052F8203C3D
:103BB00023EA010342F8203C8A0604D501220521AC
:103BC000002000F04BFF630704D5012202210020F2
:103BD00000F044FF00F056FF30220B4B1A700B4BE5
:103BE000187820441870002010BDC8B2202803D0D7
:103BF00005D810F0EF0FCED1034B1870F4E7302842
:103C0000FAD0C8E720940D4033230020342300204D
:103C100018B1012804D000207047034B1868704782
:103C2000024B1878704700BF20900D4035230020CC
:103C300010B5094A0020137801331370074B197827
:103C400002F05AFEBDE8104005490023054A096804
:103C5000054802F023BD00BF35230020553D00205C
:103C6000A8060020313C200088060020812810B5DD
:103C70000C462BD0B0F5807F3AD0802824D102F0BA
:103C8000D9FD1D4B1D4A18701368032123F008034A
:103C9000136052F8203C002023F0080342F8203C37
:103CA00052F81C3C23F0080342F81C3C52F8183C24
:103CB00043F0080342F8183C042200F0CFFE032230
:103CC00000210F4800F074FE012408E00D4B1A6833
:103CD00039B142F0080200201A6000F0DBFD2046F6
:103CE00010BD22F0080208461A6000F0E1FDF6E778
:103CF000054B1960E8E700BF553D002020940D40BA
:103D00000D3D200010940D40A806002008B50F4876
:103D10000AF0B8FBC8B108210C480AF0A1FB0C4B13
:103D2000196849B100220B4B1A700B4B1B6843B941
:103D30000A4A0B4802F0B2FCBDE80840094802F00C
:103D400027BF074802F0ECFCF6E708BD800600201C
:103D5000A80600203523002020900D40313C200093
:103D600088060020F4F82000084A136823F00403B2
:103D7000136052F8203C43F0040342F8203C002238
:103D8000034B1A600122034B1A70704720C40D4088
:103D900010C00D40362300200D4A0E49136823F051
:103DA000C003136052F8203C43F0C00342F8203CAB
:103DB0000022094B1A600B6823F010030B6051F8C6
:103DC000203C43F0100341F8203C044B1A6070473C
:103DD00020A40D4020C40D4000A30D4040C00D4064
:103DE00010F0020218BFFF22084B1A6010F0040204
:103DF00018BFFF22064B10F001001A6018BFFF2207
:103E0000044B14BF1A601860704700BF00A20D4039
:103E100000A10D4040C00D40812810B50C461ED1B8
:103E2000104A05211368002023F02003136052F884
:103E3000203C23F0200342F8203C082200F00EFE34
:103E4000FF22094B1A600022084B1A70084B24B15C
:103E5000012114461970204610BD1C70FBE74FF07D
:103E6000FF34F8E720940D4080900D403723002068
:103E70003D230020431E022B2DE9F74F804600F220
:103E80009E80574D95F80090B9F1000F40F0A48046
:103E900001232B70534B544E1B78544F002B00F0D2
:103EA00086803368524C43F020033360FF233B602D
:103EB00000F06AFB241A00F067FBC4421ED4002302
:103EC0004C4CDFF834A1236023713B6000F05CFBB5
:103ED000AAEB000A00F058FB1AEB000F11D44FF0C8
:103EE000FF0A4FF0000B1420C7F800A000F03EFBC3
:103EF000336823F02003336000230DE000F0A4FCBE
:103F0000D9E700F0A1FCE5E70120019300F02EFBCA
:103F1000019B0133FF2B48D03A68D9B25245F3D008
:103F20003B68FF295FFA83FA1BD0BBF1030F11D95D
:103F30001BF0010F0ED14FEAD902A35C08294FEA0A
:103F40004303DBB288BF43F0010309F10109A35425
:103F50005FFA89F90BF1010B5FFA8BFBBBF1550F8F
:103F6000CAD1B9F1270F22D9627823781344A278F5
:103F70001344E27813442279DBB29A4217D13368B2
:103F8000B8F1020F23F0200333604FF0FF033B60D2
:103F900018D0B8F1030F21D00022A0782A7000F0C9
:103FA0007F03E07800EB032013E01946B8E733689D
:103FB00023F020033360FF233B6000232B704FF07E
:103FC000FF3006E02378607800EB0320002380B206
:103FD0002B7003B0BDE8F08FFF20FAE70020F8E770
:103FE000372300203D23002000940D4080900D4099
:103FF00000E0FFFF3823002071FDFFFF38B50C46BD
:10400000054610B94FF0FF3038BD0029FAD0032023
:10401000FFF730FF0130F5D00020084A937803F015
:104020007F01D37803EB012305492B605378087097
:10403000117803EB01239BB22360E5E738230020CE
:1040400037230020813801289ABF024B18780020BE
:10405000704700BF3E23002010B5038804464BB1D3
:10406000FA2B0BD1822907D10AF0D8F8054B002092
:104070001B689847FA232380012002E00023038075
:10408000032010BDBC310020014802F075BC00BF08
:104090009004002030B581280D4685B007D0431E1E
:1040A000032B73D94FF0FF34204605B030BD0029F3
:1040B0005FD00222824B114610460093032301F089
:1040C0008DFC00227F4B02211A604FF4687303A815
:1040D000ADF80C300AF093F80028E3D1292003A9A9
:1040E00001F00AFD0028DDD19DF80C4004F00F041A
:1040F000032CD7D10122AA2003A90AF09FF8002897
:10410000D0D19DF80C3003F0F003502BCAD101221E
:10411000A12003A90AF092F80028C3D19DF80C3021
:10412000694A03F010011170684A03F00303137029
:104130004FF6A473ADF80C30FF23214603A88DF889
:104140000E300AF05CF80028ACD1A2238DF80E00E6
:10415000214603A8ADF80C300AF051F80028A1D18F
:104160000AF05CF8044600289CD10122584B1A70D2
:104170009AE7A023022103A8ADF80C300AF03FF81B
:10418000044600288ED1524B1C708DE7504B1B7893
:10419000002B87D0032810D14E4A0221136803A8B0
:1041A00023F001031360A623ADF80C300AF027F8C2
:1041B000003818BF0120444276E704282AD112298A
:1041C00002D002293FF66EAFA123022103A88DF889
:1041D0000C308DF80D500AF012F8044600287FF4D8
:1041E00061AF122D05D10122374B1A700222374BD5
:1041F000BDE7012D0BD004DC002D7FF455AF334B10
:10420000C2E725F01005022D7FF44EAFEEE72F4BED
:104210001D7049E7C1F3072501288DF80D108DF8B1
:104220000E5049D1A4238DF80C30032103A809F0C6
:10423000E6FF00287FF436AF41F2A623022103A84F
:10424000ADF80C3009F0DBFF044600287FF42AAFFC
:10425000214A0321136823F00103136052F8203C24
:1042600023F0010342F8203C52F81C3C23F00103E8
:1042700042F81C3C52F8183C23F0010342F8183C69
:1042800052F8143C23F0010342F8143C0246134850
:1042900000F08EFB2146124802F056FB0D4A2146E3
:1042A0001368032043F001031360042200F0D6FBDF
:1042B000032000F0EFFAF7E60228B6D1A223B2E716
:1042C000A0860100BC3100203F23002040230020B5
:1042D0003E23002010C40D4020C40D408940200022
:1042E0009004002007B5404B1B783BB1012805D155
:1042F0000222AC2001A909F0A1FF10B14FF0FF305C
:104300003BE00222AE200DF1060109F097FF0028E4
:10431000F4D19DF805309DF804209DF8071042EA7D
:1043200003229DF8063043EA012330490978022927
:104330009CBF2F4830F811002E49097801B90001BF
:1043400042434343920A4FEA93201DBF23F47F73F5
:1043500023F00303B3FBF2F313460133812B4FEA3F
:1043600053010DD84FF4F9735A434FF4D97303FB3B
:10437000102000F50050C0F38F3003B05DF804FB4F
:10438000802905D84FF405735A4340F2D123EEE754
:10439000C02905D840F23F235A4340F27B33E6E779
:1043A000B1F5807F05D84FF41C735A4340F2FE33B9
:1043B000DDE7B1F59C7F05D840F26F135A434FF407
:1043C000FE73D4E7B1F5CD7F03D8D2235A43FB2344
:1043D000CDE740F29A23994203D818235A43122377
:1043E000C5E70020C5E700BF3E2300204023002092
:1043F000CAFB20003F230020044B1B68C3F30720A7
:1044000013F4704F04BF1030C0B270471C300D4021
:10441000064B1868C00910F0060F03BF00F0070034
:10442000C0F1020040034FF40040704714300D40CB
:104430002DE9F047482488B0FFF7DEFF164B06460B
:104440001F68A36898476368804698470446FFF74B
:10445000DFFF054600F094FA814600F09DFA82469F
:1044600000F04AFAAD0A07F00103A40AC7F34007B7
:10447000CDE905A003934146CDF810900297019530
:10448000009406F00F03C6F30712044801F0E4FBA2
:1044900008B0BDE8F08700BF1C300D40BEFC200016
:1044A0002DE9F84300F070F810490246D1E90045C3
:1044B000AC46A04238BF05F1010C6346C1E90023B8
:1044C0000B48D0E90089B8EB040169EB05048E18AC
:1044D00044EB0C07C0E9006702F04AF818B1BDE8E8
:1044E000F84301F0C9BFBDE8F88300BF70060020A3
:1044F000680600200F4B104A1A6053F8042C42F053
:10450000050243F8042C53F8042C42F0020243F84D
:10451000042C0A4A136843F0010313600022084B7D
:104520001A60042243F80C2C012243F8082C0F22B5
:10453000DA62704714E000E047E8010008200D400F
:104540000C000340034BD3E90023100A40EA036048
:10455000704700BF70060020034BD3E90023D00B47
:1045600040EA4340704700BF68060020054B1860D2
:1045700053F81C2C1C3B42F001021A601A68D20747
:10458000FCD4704728000340064B18685A6808336B
:104590001B681B0443EA0223034A0343106843EAEF
:1045A0000060704740500D404C500D4010B504461F
:1045B000114A1368DB07FCD509F069FEFFF7E4FF39
:1045C000231A062BD8BFC41D0C4B220E1A60C4F34D
:1045D000074243F8042CC4F3072243F8082CE2B244
:1045E00043F80C2C09F04FFE054B91201C60BDE8F0
:1045F000104000F04FB900BF50500D404C500D40DE
:10460000AC060020002208B5054B91201A6000F08E
:104610005DF9912000F04CF9BDE8084002F0B8B90E
:10462000AC0600202C23154A70B503FB00234FF67F
:10463000BF72DC680546236C626413F050020DD033
:104640000F4EA369DB0600D570BD56F825301BB1AF
:104650002068C0B29847F4E72368F2E713F4D06FFC
:10466000F2D04FF440732363FF236360E36AE26296
:10467000E362236B43F001032363E5E724F92000A1
:10468000B00600202DE9F04F0128064685B000F263
:10469000AA802C224243554FBC1894F92090B9F1BE
:1046A000000FC0F2A08094F92230002BC0F29B8052
:1046B0004FF000084E48BA58016894F921A00A4307
:1046C0004C4902600A686068E56802430A604A680B
:1046D000A06894F923B002434A6022690AEBC90139
:1046E000C5F8C88F116094F82310D8B2227D0393C7
:1046F000CDE9010100F0BCF9DDE90101082200F07B
:10470000ADF9039B3C491A030123505803FA0BFBF4
:104710004BEA000050504FEA093959F8012003FADA
:104720000AFA4AEA020249F801205022AA63AA6B57
:1047300094F9240042F4D062AA6302226A634FF41F
:1047400040722A63A26940456A62E269AA624FF038
:104750007002EA620D4614DB94F92510274A41EAFB
:10476000C0041460020354598B4023435351C9B20F
:104770004246C0B200F072F9214A136843F4004384
:1047800013602C2303FB067393F92640002C1BDBDC
:1047900093F827905FFA84F801224946404693F93E
:1047A00027A000F065F901232403625903FA0AF3F4
:1047B0001343635108224946404600F04FF9104A1E
:1047C000136843F4804313602C2000FB0676F268E4
:1047D00096F82800136B43F00103136305B0BDE89E
:1047E000F04F00F057B805B0BDE8F08F24F9200075
:1047F00028200D402C200D4020940D4004410D40F8
:1048000030D0004001289CBF014B43F82010704776
:10481000B0060020012808D82C22044B02FB0030EF
:10482000C3689A699206FCD41960704724F9200085
:104830000022014B1A60704700500D400822014BC6
:104840001A60704700500D40A022024B1A6050229F
:104850001A60704700500D40074B084A1A60084B19
:1048600080321A60074B80321A60074B80321A6020
:10487000064A074B1A607047BC06002000E100E0C2
:10488000B8060020C0060020C4060020002020003A
:1048900008ED00E0054B41091A68012300F01F00F4
:1048A00003FA00F042F82100704700BFBC06002068
:1048B000054B41091A68012300F01F0003FA00F0BC
:1048C00042F82100704700BFB8060020054B41099F
:1048D0001A68012300F01F0003FA00F042F82100DB
:1048E000704700BFC4060020024B1868C0F3815017
:1048F000704700BF04200D4008B5FFF7F5FF024BDD
:1049000053F8200008BD00BF7CF9200038B5164DD3
:10491000164C2B68012223F040032B6023680621EC
:1049200023F040030320236000F098F82B68012255
:1049300023F080032B602368072123F0800323608A
:10494000032000F08BF80A4B0A4A0B491A600B4A05
:10495000134610680842FCD11A685101FCD41A6849
:104960005201FCD538BD00BF20C40D4000C40D402D
:1049700000200D40010102000000010104200D4053
:10498000034B04481B6803F007031841704700BF3E
:1049900004200D400048E801034B04481B68C3F3A2
:1049A00002231841704700BF04200D400048E80171
:1049B000024B02EBC10243F822007047C8060020F8
:1049C000F8B507460D460024084E06EB411647FA97
:1049D00004F3DB07E1B204D556F824300BB12846C6
:1049E00098470134082CF2D1F8BD00BFC80600205A
:1049F0002DE9F0410B4B0C4F0503EE58EC594FEAF3
:104A0000C00824FA08F4014646EA0400C0B2FFF7E1
:104A1000D7FFE4B2054BF6B204FA08F4EE50EC51BD
:104A2000BDE8F08118940D4018970D401C940D407E
:104A300080220021014808F0FBBE00BFC80600200C
:104A4000034B044A1A60044B803A1A60704700BF57
:104A50004807002080400D404C070020034B01EB2D
:104A6000C0011B6843F82120704700BF48070020A1
:104A7000034B01EBC0011B6843F82120704700BFC6
:104A80004C070020024A136843F03003136070475C
:104A900000700D400E2870B506460BD1134B1C68F4
:104AA00044F0020018601248056825F03F0343F007
:104AB000010303600F48036823F0FF031A43114307
:104AC00031430D4A016013681B06FCD50B4B0C4AA1
:104AD0001B68106803F0FC0343EA00230E2E18B293
:104AE00001BF034B1D60014B1C6070BD34000144CD
:104AF000F486084008700D4000700D400C700D40A9
:104B000010700D4010B58F20064CFFF7DFFE8F2090
:104B1000FFF7CEFE206818B101F02EFF00232360BE
:104B200010BD00BF50070020064A136843F002037F
:104B30001360536843F002035360936843F0020329
:104B40009360704748200D4007B5FFF7EDFF0A4B13
:104B50001A6842F002021A6000220192019A0F2A9A
:104B600006DD1A6822F002021A6003B05DF804FB49
:104B7000019A0132F1E700BF54200D40064A136844
:104B800023F002031360536823F002035360936819
:104B900023F002039360704748200D400B4B1A68C6
:104BA0009207FCD41B685B065FBFED22084B1A60BE
:104BB0001A60084B1B6813B1EF22054B1A60064AB6
:104BC0000120137803F07F03137070474C86084070
:104BD000388808402C86084043230020044B18687E
:104BE00000F02200A0F1200358425841704700BF56
:104BF0004C860840024B186800F04000704700BF28
:104C00004C860840084B93F90020002A09DBED216F
:104C1000064A11601160E32111601A7862F07F0288
:104C20001A700120704700BF4323002038880840D5
:104C3000A0F10B01CBB20F2B10B5044613D80B4BD0
:104C40001B6813F03F0302D0FFF7A8FF0123084AB7
:104C500001EB81010B3111600BB1FFF7D3FF054B65
:104C600060B21C7010BD4FF0FF30FBE74886084073
:104C70003C8608405E06002010B50C46002900F076
:104C80008680102800F28580DFE800F009101B22E2
:104C9000243B44575C727683837B7D547F003E4B7C
:104CA0001B68003B18BF0123236024E005223B4B17
:104CB0001B6803F07F030B3B93FBF2F30B33DBB278
:104CC000F2E7374B1A68043B1B6843EA0223EBE721
:104CD000344BF7E700230B60334B344A1B6803F077
:104CE00001030B601268900644BF43F002030B609F
:104CF0002F4B1B780BB900200BE00B6843F004032B
:104D0000D2E700202B4B08601B78002BF3D0012347
:104D10000B6010BD284B29491A680023D2B201EB61
:104D2000C3000079904202D851F83330BCE7013318
:104D30000E2BF4D16FF01703B6E7214B1B685BB263
:104D4000493BB1E71F4B1B6899060FD1FFF75AFF8C
:104D500001231D490A68D207FCD51C4A116849394C
:104D600049B20BB1FFF71AFF2160C4E70023F0E757
:104D7000174B93F9003097E7164B1B7803F07F032E
:104D800092E70B2390E71A238EE707238CE7022094
:104D9000BFE70120BDE700BF2C8608403C860840E5
:104DA000CC850840D4850840008608402486084009
:104DB000422300205F06002040860840C4F92000FE
:104DC0005886084048860840648608406086084047
:104DD000442300204123002008B50B4B1B68990693
:104DE0000FD1FFF70FFF012308490A68D207FCD54E
:104DF000074A1168C1F300110BB1FFF7CFFE084657
:104E000008BD0023F0E700BF4886084064860840DC
:104E10004C86084038B505460C46134A13689B0774
:104E2000FCD4124B93F90030002B01DBFFF7EAFEB4
:104E3000EE220F4B691E1A601A60A21C43F8102C58
:104E40002144022000F02CFB0A49013C41EA0411F4
:104E5000022000F037FB022000F03EFB022000F0B1
:104E600053FB002038BD00BF4C8608404323002080
:104E70003888084002C001C0F8B5224B93F90030D1
:104E8000002B18DBFFF780FB0446FFF7BBFEC4F1E5
:104E9000FF2404F57F04F634FFF776FBC442FBD40D
:104EA0000126194B1B7843B9184C2368990609D57C
:104EB00002210846F8BD0026F3E7FFF78DFF002822
:104EC000F2D1F5E7E9230427114D2B6023689A07F7
:104ED00003D4013F17F0FF070BD123689B070CD4C5
:104EE000EE2301212B602B60002EE2D0FFF756FE4F
:104EF000DFE70620FFF73AFBE8E7216811F002013F
:104F0000FBD1F1E7432300205F0600204C860840D8
:104F1000388808400B280DD1082A0DD161B1074B04
:104F2000074A083111F8010D43F8040B9342F9D1F7
:104F3000002070470120704702207047A885084074
:104F4000C885084070B52F4E0246306810F040000A
:104F500008D02D4D2868040605D5ED2200202B4BE6
:104F60001A601A6070BDC0B20428F6D902388842AF
:104F7000F3DCC4B2032C1ED12B6813702B68537062
:104F80002B6893702968224B493949B219702B68F4
:104F9000204D18062B70E0D589B2042006F0CCFF16
:104FA0002978032001F07F0106F0C6FF1A4B1B7819
:104FB000CBB12046D6E711190320013900F078FA69
:104FC000164B611E032043EA011100F07BFA032017
:104FD00000F082FA032000F097FA032000F0A0FA14
:104FE0000028FAD1CEE733685A06E2D533681B06AB
:104FF00003D50B4801F0C0FCDBE7ED22034B1A6040
:105000001A60D6E74C86084028880840388808404F
:1050100044230020412300204223002002C0010C31
:10502000A00400201E4B1870002830D01D4A1368C1
:105030001B03FCD51C4B1A6842F002021A601A6866
:1050400042F001021A601A685007FCD51A6822F073
:1050500001021A601A685107FCD41A6842F0020271
:105060001A601A6842F001021A601A685207FCD5E9
:105070000E4A8D20136823F004031360D2F8A83180
:1050800002F5D47223F004031360FFF711BC074A42
:105090008D20136843F004031360FFF7FBBB00BFD0
:1050A0004223002004200D40048808408C860840DC
:1050B00008B507285FD8DFE800F0040F1A21244064
:1050C0004659012903D1FFF79DFD00203AE0002950
:1050D00053D1FFF763FDF8E7A1F10B030F2B4CD879
:1050E000C8B2FFF7A5FD0130EFD103202AE0244B21
:1050F000CAB2C1F307211A605960E6E7214BCAB270
:10510000F7E731F0070338D11F4B11F0010F1A6890
:10511000C1F3800014BF42F0010222F001021A60C4
:105120001A4B11F0020F1A6814BF42F0200222F04D
:1051300020021A60FFF776FFC7E731F001001CD1AB
:10514000134B197008BD01F118031F2B15D80D233F
:10515000104A52F83300814205DC02EBC3031A798E
:105160000D4B1A60B1E7013BF3D2AEE70B4BC9B26E
:1051700049311960A9E70120E4E70220E2E700BF16
:10518000C8850840D085084000860840248608402D
:105190005F060020C4F92000408608405886084079
:1051A000F8B5294F3D7815F001054BD10124F822BF
:1051B000264B7F261C605C609C60A3F59323A3F5BF
:1051C00014731A600922C3F8902115221A670B2262
:1051D000703303F59B23C3F83C21402203F59E73F3
:1051E000A3F59B23A3F5F0731A601A6842F020021E
:1051F0001A60D52243F81C5CDE62DA61144B187821
:10520000FFF716FD134B8E201E60FFF743FB0220B5
:1052100000F06EF91049022000F04AF9032000F076
:1052200067F90D49032000F03BF90C4B1878FFF7A4
:10523000F9FE0B48294601F087FB20463B782343C3
:105240003B70F8BD0020FCE743230020A8200D4060
:105250005E060020948608402888084042230020EB
:10526000A004002038B50388044653B340F203423B
:10527000934233D11B4B18781A4638BB822923D16D
:10528000137873B906F0FEFD06F090FD8021FFF75C
:1052900059FE002805DD80B206F06CFD124B1B693B
:1052A0009847124B1A7852060BD500221A70104BF1
:1052B0001D68FFF773FCFFF773FFAB0601D0FFF724
:1052C000A1FC40F20343238001200AE01B78002B5D
:1052D000FAD0064B1B785806F6D5CFE7002303809B
:1052E000032038BD4223002088FA200043230020F9
:1052F000488608400B282DE9F0470C460FD1082AB4
:1053000079D1002977D03D4B3D4A4C1E53F8041902
:10531000934204F8011FF9D10020BDE8F0870C2862
:1053200067D1042A67D1002965D0364B36491A68FF
:10533000DFF8E48022F007021A600A68334F42F077
:1053400008020A60D8F800003A681D68DFF8CCE06F
:10535000DFF8CCC025F070051D60DEF80050DCF8E9
:105360000060C0B2120240EA066092B202434FEA05
:105370000549274809F47F09D0F800A042EA090648
:105380001A685FFA8AF522F0070242F001021A60F9
:105390000A6842F008020A60D8F800203F681968DD
:1053A00021F0700141F010011960DEF80010DCF806
:1053B00000C0D3B23A0243EA0C6392B213430A0428
:1053C000016802F47F0243EA02085FFA81F9FFF7FD
:1053D000DBF8B6EB080165EB0905ED030746002392
:1053E000C8030C4A45EA514107F092FF3F1A276073
:1053F00092E7012091E702208FE700BFC4850840B3
:10540000A48508401088084004880840188808408F
:105410001C8808400048E801148808402488084097
:105420002088084008B5054B1B7813B9044801F0E3
:10543000A3FA0022034B1A6008BD00BF42230020DC
:10544000A004002034880840064B07481A68042A44
:105450001FBF06490A7842F040020A7000221A6013
:1054600001F08ABA2C880840A004002043230020C1
:1054700008B5094B40221846002108F0D9F901214E
:10548000064A116050602E20FFF704FABDE808407C
:105490002F20FFF7FFB900BF0000002004F00F40ED
:1054A00003289EBF014B00011950704700000020E7
:1054B00003289EBF024B03EB00104160704700BF02
:1054C0000000002003289EBF024B03EB0010816008
:1054D000704700BF00000020032806D80123034ABC
:1054E00003FA00F0116808431060704728F00F407D
:1054F000032806D80123034A03FA00F01168084381
:105500001060704720F00F40032806D80123034A9B
:1055100003FA00F0116808431060704714F00F4060
:1055200003289FBF044B03EB0010806800F00700C6
:1055300088BF0020704700BF000000204FF0FF32FE
:10554000014B1A60704700BF04F50F400122014B68
:105550001A6070474CF00F4010B59020064CFFF7D2
:10556000B5F99020FFF7A4F9206818B101F004FA0A
:105570000023236010BD00BF5407002070B50E4DFE
:1055800004462E784EB9C0213046FFF743F90D216D
:105590003046FFF73FF901232B700020E1B2FFF7FF
:1055A00039F90A2C05D1C0210020FFF733F9002377
:1055B0002B70204670BD00BF4523002070B5184BEE
:1055C0001A78431E52B101F52011164A2731914233
:1055D0001AD011F8010903F8010FF8E7124A1278FE
:1055E000122AF0D1114A12784B2AECD14C0804F55A
:1055F00020120C4D2732AA4207D1002301F52011B9
:1056000020442731A34205DB70BD12F8016903F87D
:10561000016FF0E7CA1A1278013300F8012BF1E7A5
:105620002B002800270028002A0028002900280035
:1056300000200149FFF7E6B8055920002DE9F74F92
:1056400003880090002B4BD0B3F5A57F40F0088174
:1056500082294FF0010540F00881DFF834A2844B25
:10566000DFF83882BAF800401D7018F80430D146CF
:10567000432B47467F4E44D1DFF810B2BBF80030D1
:105680009C423ED21B1B052B3BDD08EB040306228C
:1056900018467949019307F0BFFF019B0246002895
:1056A0002FD148F804009880744B754C3080ABF8CB
:1056B0000000AAF800001D7014F8010B019208F018
:1056C0001EFE019A01320D2AF6D100256D4B1D8078
:1056D0007DB16D4B1B6803B1984704F019FC08E0DD
:1056E000644A1380694A1380694A13800122634B1C
:1056F0001A704FF4A5730120009A138003B0BDE81F
:10570000F08F32880025944202D15E4B1D80F0E775
:105710003CD32B4640F2235B40F2145E4FF0C008AE
:105720004FF0DB0A5B4807EB040C5C4502D875457B
:105730005AD90025002040F2145E4FF0C0084FF007
:10574000DB0ADFF858C1534C81B28A423AD9754519
:1057500037D81CF8011B002B64D0DD295DD105F87A
:1057600004A00135ADB200230130EDE7A9B113F873
:10577000011BDD2905D105F800800135ADB20021FE
:1057800019E0DC29FBD105F800E0F6E740F2155CF2
:105790004FF0C00E4FF0DB083E483B5DDB2B16BFE1
:1057A000002101212B5404F1010318BF01359BB2E4
:1057B00018BFADB23B440134A4B2A24202D9654540
:1057C000D4D1002540F22453013292B29A4204BF50
:1057D000002333802D4B18BF3280328819888A42CB
:1057E0003AD1A9F8002071E71CF8011B73B1DD293B
:1057F00007D105F800A00135ADB200230134A4B2F1
:1058000093E7DC29F9D105F80080F4E7DB291BBF19
:10581000295401350123ADB2F0E7DC29A3D105F805
:1058200004809EE7DB291BBF295501350123ADB25A
:105830009AE701339BB2A3424FF0000000D1034628
:105840009942CED0F85CC028F3D113483380A9F830
:10585000002001F091F839E7104640F22454EEE7B9
:105860000023009A0320138048E7284646E700BF3C
:105870005A3D0020341C002090FD20006A280020A2
:1058800097FD20003433002058070020321C0020F0
:10589000301C002048330020B004002046230020A4
:1058A000014B1860704700BF58070020F8B5C020B2
:1058B00008F025FD0025104C104E114F3288ABB278
:1058C0009A4204D8C02008F01AFD0020F8BD3C2BF5
:1058D00008BF3C6814F8010BC02807D1DB2008F092
:1058E0000EFDDC2008F00BFD0135E7E7DB28F9D1E0
:1058F00008F005FDDD20F5E74833002034330020B3
:105900006838002038B5244B1A781C46022A07D084
:10591000032A27D1C02804BF01221A70002030E0DA
:1059200000F12402D2B2012A06D903221A701B4BBD
:105930001A881B4B1A80F1E70123237040F224558B
:10594000174B1A88511C89B2A94208BF002119803F
:1059500014491D8809888D4208D1032222700F4AFC
:105960001288E7E7DB28E9D10223E6E70E4C54284A
:10597000A05407D1635C432BD0D10C4800F0FCFF4E
:10598000012038BDC028C9D1044804889442D1D030
:10599000A142F2D10280F0E76A280020341C0020E6
:1059A000321C0020301C002046230020B0040020C0
:1059B000024A136843F0100313607047200002404E
:1059C00014235843034B044A0344B3FBF0F3013B55
:1059D00013607047FF23F4000C0002402DE9F047EC
:1059E0001646274A1F461368264C43F00103DDF88C
:1059F00020A013602368804643F001032360322017
:105A00008946FEF7B3FD23681F4823F00103236096
:105A100001244FEA0832135804FA09F123EA01037A
:105A2000135033031D58BC4025EA04051D50174D83
:105A30005059014351515A59494614435C5140460B
:105A40000022FFF70BF8394630460022FFF706F830
:105A50000F4B49EAC8021A6047EAC6025A60494633
:105A600040460B22FFF704F8304639460C22FEF779
:105A7000FFFFFFF79DFF5046BDE8F047FFF7A0BFCF
:105A800038200D4044200D4000940D4020940D40DE
:105A90002C410D40024B18600120FEF767BD00BF8E
:105AA00004000240024B186800F00100704700BF7C
:105AB00004000240054B1B68D8B2DB0704D410F089
:105AC000120F08BF002070470020704704000240FA
:105AD00008B5074B4000186007209960FFF7DAFF10
:105AE000044A1368DB07FCD4BDE80840FFF7E2BFB7
:105AF00000000240040002400A4B400040F0010058
:105B000010B5186007200C46FFF7C4FF064A13685B
:105B1000DB07FCD4FFF7CEFF10B9044B1B682370E2
:105B200010BD00BF00000240040002400800024017
:105B30002DE9F8430C461546002A3AD0002938D002
:105B4000012A04D1BDE8F8430978FFF7C1BF1A4A1A
:105B5000430013600B78194F03203B60FFF79AFF57
:105B6000174B98461A68D107FCD4FFF7A3FFE0B1A2
:105B7000BDE8F843FFF79EBFA35D01203B60FFF740
:105B800089FFD8F80030DA07FBD40136F6B2B14508
:105B9000F2DC2C4414F8013C05203B60FFF77AFF4F
:105BA000D8F80030DB07FBD4E2E7012605F1FF3926
:105BB000EDE78020BDE8F8830000024008000240C5
:105BC000040002402DE9F8430C461546002A3AD05D
:105BD000002938D0012A03D1BDE8F843FFF78CBF74
:105BE0001A4A430043F0010313600B20FFF752FFF2
:105BF000174B98461A68D107FCD4FFF75BFF90B9A2
:105C00000126144F05F1FF393B682370B1450EDCC6
:105C10000520FFF73FFFD8F80030DB07FBD43B68D7
:105C20002C4404F8013CBDE8F843FFF743BF0920CA
:105C3000FFF730FFD8F80030DA07FBD43B68A355F4
:105C40000136F6B2E2E78020BDE8F88300000240AA
:105C500004000240080002400FB407B504AA52F83D
:105C6000041B0448019200F035F803B05DF804EB22
:105C700004B07047C00400201FB50C461146074A07
:105C8000CDE90004029202A81A46CDF80CD000F02B
:105C900021F80022009B1A7004B010BD85E320009B
:105CA00070B505460C460A4E102C07D874B1224632
:105CB0002B6868680649BDE87040184710223146D5
:105CC0002B686868984710B9103CEDE7204670BD16
:105CD000FFFD20002DE9F04F0746154600268FB046
:105CE0000791079B1B78002B00F09C83079B1A7879
:105CF0001C460133002A00F08583252AF7D1079B33
:105D00009C4205D081E323784644002B00F08A832F
:105D10006278631C002A00F085830024184610F87E
:105D2000012B19462B2A17D00BD8202A17D0232A4B
:105D300018D0A2F1310CBCF1080F3FD84FF0000A87
:105D400018E02D2A04D0302AF3D144F0100401E0E9
:105D500044F001040346E1E744F00604FAE744F0A6
:105D60000204F7E744F00804F4E70A2101FB0A2AD9
:105D7000AAF1300A194613F8012BA2F130000928C4
:105D8000F3D90B782E2B37D14A784B1CA2F1300077
:105D9000092829D84FF000081A781946A2F13000D6
:105DA000092803F1010319D90B786C2B6FD14B78BB
:105DB0006C2B24D144F08004023123E02A2A0AD13A
:105DC000D5F800A00146BAF1000F05F10405B8BFEF
:105DD00044F00104D5E74FF0000AD2E70A2101FBA5
:105DE0000828A8F13008D7E72A2A04D1D5F800807E
:105DF00002310435D8E719464FF0FF38D4E70131B6
:105E000044F060040B78782B0CD8572B4BD8472BD9
:105E100008D8402B00F29080002B00F00383252B44
:105E200000F0D3804B1C079304F4E063B3F5A06F3C
:105E300000F0C98200F2CC80B3F5407F00F072829E
:105E4000B3F5806F00F03682B3F5807F7FF449AF01
:105E5000B8F1000FACBF24F010044FF0010814F4A7
:105E6000005204F0E003069200F0EA80402B00F0BC
:105E7000E08000F2C280002B00F0DE80202B00F0DA
:105E8000C78000220023CDE900230023CFE0682B48
:105E9000B8D14B78682B02D144F020048CE7013153
:105EA00044F04004AEE7583B202BBBD801A252F887
:105EB00023F000BF7D5F2000255E2000255E2000CE
:105EC000255E2000255E2000255E2000255E200046
:105ED000255E2000255E2000A75F2000255E2000B3
:105EE000B35F2000655F20008F5F2000835F20008C
:105EF0009B5F2000255E2000655F2000255E20005E
:105F0000255E2000255E2000255E2000C55F200064
:105F1000715F2000BF5F2000255E2000255E20000D
:105F2000B95F2000255E20006B5F2000255E200009
:105F3000255E2000775F2000413B062B3FF672AFC5
:105F400001A252F823F000BFAD5F2000255E2000C3
:105F5000255E2000255E2000955F2000895F2000DF
:105F6000A15F200044F424545CE744F4106459E732
:105F700044F4885456E744F4C85453E744F4B24414
:105F800050E744F400744DE744F484444AE744F491
:105F9000024447E744F4424444E744F4813441E78F
:105FA00044F4A1343EE744F4C1343BE744F4E13423
:105FB00038E744F4A06435E744F4806432E744F4FD
:105FC00040742FE744F4E0642CE744F4C06429E70C
:105FD000B3F5C06F07D0B3F5E06F7FF482AE2B68E6
:105FE00004351E607DE601223B68A9497868984720
:105FF000002840F01582013673E6602B1CD0802B00
:106000007FF43FAF073525F00705F5E8022303E0ED
:1060100095F90020D3170435002A73F10001BFF66B
:1060200032AF524263EB4303CDE9002301230393D4
:1060300017E0B5F90020EDE72A680435D317EBE740
:10604000402B00F0B08000F29A80002B00F0AD8071
:10605000202B00F0A180069B002203930023CDE9B2
:10606000002304F4C053B3F5805F00F0D580B3F58E
:10607000C05F00F0D680B3F5006F00F0B78000235A
:106080000DF1360B0493049B41F20802984588BF3A
:10609000A8EB030841F6080304EA030198BF4FF098
:1060A000000891421A4604D1B8F1010F38BF4FF0F1
:1060B0000108049B914203EB080040F0CC80DDE92D
:1060C0000023134300F0C780724914F4804F724BD1
:1060D0004FF0020918BF0B46069A72B1039A002AC4
:1060E00040F0BD8004F00602022A00F0BC80062ABF
:1060F0006A4A04BF4FF00109134609EB00029245BA
:1061000094BF4FF0000AAAEB020A14F001020092B9
:1061100004D1E10640F1AB80D0449246B9F1000FC2
:1061200007D04A4619463C687868A047002840F0E6
:1061300077814446049B1E44102C5949D7E900300E
:1061400000F29F802CB1224655499847002840F024
:10615000678159463B68049A78684E4498470028FE
:1061600040F05E81009B4644002B00F0D4805146F5
:106170003846FFF795FD002800F0CD8050E1602BF8
:1061800013D0802B7FF467AF073525F00705F5E8BE
:106190000223CDE9002304E02A780023CDE900237F
:1061A0000435069B43E72A88F7E72B680022194647
:1061B0000435CDE90012F4E7DDE904010A220023E9
:1061C00007F0A6F8DDE9040130320BF8012D0023B9
:1061D0000A2207F09DF8CDE90401DDE90423134309
:1061E000EAD10DF13603A3EB0B034BE7DDE9002306
:1061F0000DF1360BCDE90423EFE702F00701303152
:106200000BF8011DD10841EA4371D8080A4603463C
:1062100052EA0301F1D1E4E70DF1360BDDE9002389
:10622000F6E7204B14F4804F0DF1360B1E4908BFE2
:106230001946DDE9002352EA0300D2D002F00F0034
:10624000085C4FEA131C0BF8010D100940EA0370BB
:1062500002466346EFE74FF000094B463CE74FF03C
:106260000109124B49E74FF00109114B45E751462F
:1062700038460393FFF714FD039B00283FF44EAF0D
:10628000CEE010229847002840F0CA80103C53E727
:10629000FDFD2000ECFD2000EFFD2000F4FD2000BE
:1062A0000FFE2000DBFD2000CAFD2000F2FD2000D3
:1062B00055FC2000D5F800900435B9F1000F2CD022
:1062C0004B469B469BF800200133002AF9D1ABEBEB
:1062D000090BB8F1000F02DBC34528BFC346DA45FE
:1062E00094BF4FF0000AAAEB0B0A14F0010406D188
:1062F00051463846FFF7D4FC002840F091805A46BA
:1063000049463B6878689847002840F089805E4499
:10631000002C7FF42CAF5644E3E44FF0060BDFF87B
:106320001491D6E7414B424A14F4804F08BF9C4673
:106330000DF1330318BF944600211A46286804352E
:1063400050EA010E30D1D21A08BF30224FF0780146
:1063500004BF03F8012C03F1FF3303F8011C4FF0D5
:10636000300108BF012203F8021C232102F10309B6
:10637000CA4594BF4FF0000AAAEB090A14F00104C1
:10638000A3F1030803F8031C05D151463846FFF773
:1063900087FC002844D14A4641463B6878689847C4
:1063A00000283DD14E44B3E700F00F0E1CF80EE07C
:1063B0004FEA111803F801ED4FEA101E4EEA017E74
:1063C00070464146BCE7BAF1010F38BF4FF0010AF1
:1063D0002B6814F0010405F104058DF820300AF152
:1063E000FF3805D141463846FFF75AFCC0B946444C
:1063F00001223B68786808A9984788B9002C8AD0A0
:106400004146B5E6079B9C420CD0079B0799A4EB3D
:10641000030842463B687868984700283FF473AC0D
:106420004FF0FF3630460FB0BDE8F08FDBFD2000A7
:10643000CAFD2000F6FD200010B50D4C236813B9ED
:106440000C4A136010BDFEF77DF82268D2E90031D6
:106450000B441B1A92681AB91844064B1860F1E7EE
:10646000D2E900142144091A8B4228BF0B46F1E7F8
:10647000600700205C070020014800F07DBA00BFE3
:10648000C80400202DE9F8430388054653B1592B71
:1064900048D1872921D1002024490B6863B918B15C
:1064A0000B6001E0214A1360592301202B80BDE8D5
:1064B000F88301203346F1E7D3E902649442F8D02F
:1064C00000B10B6019460B4689680029ECD0C868FA
:1064D0009042F8D189689960F4E78229E4D1134F9A
:1064E0004FF00009B84600263C68002CDCD020465E
:1064F00007F0C8FF98B122468821E06800F0FCF957
:1065000058B9A368E0602EB1B360C4F80890FFF7F3
:1065100093FFE8E7C8F80030F7E7FFF7ADFF26463E
:10652000A468E2E7002303800320C0E7600700209F
:1065300010B50446FFF7A0FFE3680B4A0BB11368E0
:1065400033B90A4B1B68E36013681460A36004E06E
:10655000A34206D1054A1268DA60BDE81040FFF791
:106560006BBF9B68ECE700BF60070020E8080020D5
:10657000024B1868003818BF0120704760070020E0
:1065800010B50B4A04461368834208D18368136030
:10659000FFF752FF0023C4E9023310BD1346002B5E
:1065A000F8D09A68A242F9D1A2689A60F0E700BFD9
:1065B00060070020F8B5038805461646CBB14A2B84
:1065C0002BD188291FD1174807F06DFF0446C4B1AD
:1065D000231D9E421FD12146124807F06EFF124E26
:1065E000626937683260A2690AB1E0699047376032
:1065F00007E00C4807F057FF044634B901220B4B63
:106600001A704A232B8001200AE0A168201D07F0A0
:10661000FBFE2468F1E72468D9E700230380032008
:10662000F8BD00BF64070020E80800206B280020A8
:1066300010B50024054B06481C7007F031FF2146B9
:10664000BDE81040034800F07FB900BF6B28002070
:1066500064070020D804002070B50446E3610B4BAA
:10666000049D1B78C4E905526BB1094D094B2E6896
:10667000201D2B6007F0C8FE2E602146BDE870404B
:10668000054807F02DBFA160F7E700BF6B28002089
:10669000E8080020D80400206407002013B5034C4C
:1066A00024680094FFF7D8FF02B010BDE80800206E
:1066B00070B5094B04461B783BB1084D084B2E685A
:1066C00004302B6007F0A9FE2E602146BDE8704023
:1066D000044807F005BF00BF6B280020E808002031
:1066E000D80400206407002070B5094B04461B78CD
:1066F0003BB1084D084B2E6804302B6007F096FE26
:106700002E602146BDE87040044807F0E9BE00BF96
:106710006B280020E8080020D8040020640700202F
:1067200010B5084B04461B7843B10430FFF728FF2F
:106730002146BDE81040044807F0BFBEC0E903335E
:10674000F6E700BF6B2800206407002038B5836897
:1067500004460D469BB10A4804600220A07304F170
:106760000C0098470238012801D9832D05D1214614
:106770002046BDE8384000F005B80123A37338BDBA
:10678000E80800202DE9F8431C4F04463D68884680
:106790002B46A34204D00BB9BDE8F8831B68F8E789
:1067A000002CF9D0164EA37BD6F8009063B10023DD
:1067B000A3738DB9A3683BB1444505D02A46832114
:1067C000346004F10C0098473B68A3420ED1236863
:1067D0003B60C6F80090DFE7A54204D0224687213F
:1067E000284607F035FE2D68E3E71346002BF0D06E
:1067F0001A68A242F9D122681A60EAE7EC08002080
:10680000E8080020002238B50125084B1A70084B13
:106810001C6804B938BDE37B2BB1002282212046DD
:10682000E581FFF793FF2468F3E700BF6F2800209E
:10683000EC080020024B1878421C1A70704700BF09
:106840006D2800208A22064B1A700023054A137017
:10685000054A1370054A1360054A1360704700BF6C
:106860006D2800206C2800206E280020EC080020F5
:10687000E80800202DE9F0411A4D2B780BB1FFF705
:10688000C1FF194C267896B10C221849184F0B7885
:10689000013E5A430133B81803F01F03BF5C0B706D
:1068A0002670D0E9018090B9124B1E6826B92B786A
:1068B00020781844BDE8F0812B780BB1FFF7A2FFD8
:1068C00030464246394607F0C3FD3668EEE7812F71
:1068D00008BF01234246394608BF837307F0B8FD5D
:1068E000E5E700BF6F2800206E2800206C280020FC
:1068F00068070020EC080020F0B50B4E3378202B01
:106900000FD00C25094C0A4F24781C4404F01F04B6
:106910006C433D19C5E9012000200133395533701E
:10692000F0BD0120FCE700BF6E2800206C2800208D
:106930006807002038B5034C256807F089FD2560FD
:1069400038BD00BFE808002010B40A4C0A46216890
:106950000B4683420CD04BB950B10160012120603D
:10696000817310BC81218381FFF7E4BF1B68F0E7CE
:1069700010BC7047EC08002038B1837B013B012B31
:106980009FBF0123014AC373137070476F28002013
:1069900010B5084C206858B100232360D0E90131BC
:1069A0009847236823B1BDE810401868FDF7FEBD85
:1069B00010BD00BFF008002070B505880446672DA3
:1069C00009D0792D2FD0002D33D1FFF733FF1B4B8A
:1069D00018701B4B1D601B4E194D08E00A282B68D0
:1069E0000ED07E2B03DC5A1C2A60174AD054304646
:1069F00007F004FE431CF1D16723238001201BE034
:106A00005A1C2A600025104A2846D5540B4B197889
:106A1000FFF772FF0D4B2A4685211868FFF76CFFC0
:106A200018B97923E9E78529E8D10022044B1A60D7
:106A3000D1E700230380032070BD00BF5B3D002031
:106A4000F4080020F808002070280020E808002042
:106A50000D28014610B516D00C4C237853B90C48BC
:106A600007F0B9FD08B9012323700A48FFF784FF36
:106A7000012010BD0A28F8D1054807F0ACFD002818
:106A8000F3D00023F0E70020F3E700BFF028002058
:106A9000F8080020E804002008B5054905488022D0
:106AA00007F092FDBDE8084000210348FFF74CBF06
:106AB000F1280020F8080020E80400202DE9F0412A
:106AC00004880546772C20D07E2C3DD0002C4ED15A
:106AD000FFF7B0FE284E294B294FDFF8B080187021
:106AE0003460336857F823202AB9264A1370772375
:106AF0002B8001203EE008F80340936800218020AD
:106B00009847336801333360EBE700231E4A136074
:106B1000194A1360184B1B4A1B6812789A4204DC0E
:106B2000194B1B68002BF0D1E1E7184AD256002A16
:106B300019DA134A002052F82320104B1978FFF776
:106B4000DBFE28B97E23D3E70C4B1B788B42D0D1D8
:106B5000094B0E491A688B5C03F07F038B540A4A79
:106B6000136801331360044A13680133D1E700232B
:106B700003800320BDE8F081040900205C3D002073
:106B8000800400207129002000090020563D0020CB
:106B900010B40A4B0A4A197800238B4203DA52F8E0
:106BA000044BA04208D107490748CA5C62F07F0243
:106BB000CA5410BCFFF7E0BE0133EEE77129002094
:106BC00080040020563D0020F8040020064A136887
:106BD00043F004031360054B186804331B6840EA54
:106BE000032080B2704700BF00700D4014700D404C
:106BF00010B5174A136823F00C0313600122154BDC
:106C00001A601A68012AFCD10822134B13491A6032
:106C1000E32203F505731A601A460B68DB07FCD5FF
:106C20000F4C102100232068013900F0010043EAD5
:106C300000034FEA43039BB2F5D1002BF1D0094981
:106C4000180A03F0FE0308600B60EF23136010BD09
:106C500000700D40A8200D4024860840648608403E
:106C60009C86084014700D402DE9FF476F46224D69
:106C7000224E05F108030FCB87E80F00337895F813
:106C80000780BBB13A221E49AA710A88D21A92B271
:106C90000A80A2F128010812287103F12800284473
:106CA000C3F1040369712C3A011D184406F05AFD22
:106CB00000233370134807F0F6FB0446DFF840A0CA
:106CC0002CB90F4B34701C8004B0BDE8F087D4F8A9
:106CD0000490B9F1000F09D0BAF8003032782C3B9B
:106CE0003832414638469BB22A44C847204607F00E
:106CF00012FC0446E4E700BF483300209929002035
:106D00003433002008090020F8B52C4B2C4C1B799B
:106D100004F11806E371237E04F10805FF2B31D13D
:106D200095E80F0086E80F003146284600F0DCFAAF
:106D3000244D2B78BBB13A222349A2710A8803F172
:106D40002800D21A92B20A80C3F10403A2F12801EA
:106D500020440E1261712C3A011D1844267106F070
:106D600001FD00232B7081212B782833E218E1529A
:106D70000023538007F0CDFCC0432B78134A134403
:106D80005880F8BD2F46124A3B4603CBB3421060F1
:106D900051601F4602F10802F6D196E80F0085E81F
:106DA0000F000B4B0B4D03F110062A46186859686B
:106DB000083303C2B3421546F7D1B9E7C831002002
:106DC00048330020992900203433002070330020FC
:106DD000361C00206033002038B504460B480D46B1
:106DE00007F061FB08B901200FE00379A34204D149
:106DF00043799D4204D0FF2B02D007F08CFBF1E7D2
:106E00008368002BEFD09847002038BD0C09002084
:106E10000146014807F064BB0C0900202DE9F74F3B
:106E2000474D81462B788846934653B1454A9B5C33
:106E30003A2B0ED10023444A2B70138003B0BDE8D7
:106E4000F08F424B9A793A2A03D193F92830002BDC
:106E5000F0DA3F4C03F0B8FD04F110063746A246C5
:106E60003C4A234603CBB342106051601C4602F1FA
:106E70000802F6D1344E354C3388214630339BB26C
:106E8000B3F5A06F88BF4FF4A063338032882B78AE
:106E9000D21A04EB4300303A3030019306F062FC22
:106EA0006022019B22603A22002B47D084F82820E0
:106EB000294B62891B79E37123891343A289134308
:106EC000E2891343228A1343628A1343A28A13433B
:106ED000E28A13439BB2002BACD0204B0FCB8AE845
:106EE0000F001C4B1B78FF2B05D1B9F1040FA1D16A
:106EF000B8F1020F9ED11749184800F0F5F995F83E
:106F000000A058460AF12803E21804F8039082F81A
:106F1000018001F0D1FC124B43F80A003388283B72
:106F20001A122271002263712B783B445A8007F0B9
:106F3000F0FBC0432B781F4478807FE7A271B7E74E
:106F4000992900207033002034330020483300207A
:106F500060330020361C0020C83100205033002050
:106F6000743300202DE9F0411E4660231A4D0F4670
:106F70002B603A230446AB71184B90461B7900F105
:106F8000100CEB71331D1A122A716B7105F1180286
:106F9000134620686168083403C364451A46F7D174
:106FA0000F49104CA1F1100000F09EF923782C3607
:106FB0002833EA18EF54002382F80180538007F049
:106FC000A8FBC0432378084A13445880074B1E800F
:106FD000BDE8F04102F0AEBF48330020C8310020C8
:106FE00060330020992900207033002034330020C2
:106FF00008B50448FFF70CFFBDE808400248FFF75A
:1070000007BF00BF14050020080500202DE9F3414B
:10701000144D0446CDE900150E4690461F46202229
:1070200003460321104807F0F9FA012818D12B680C
:1070300004F11002187020462B68023350F8041B2C
:10704000904243F8041BF9D12868089B8674436179
:10705000099B80F813800777836102B0BDE8F08157
:107060000020FAE718090020C4320020F8B50746CE
:107070000B4E0C4D2E6060362C68B44201D30020BC
:10708000F8BD237833B1A27C3946D208A01C06F0A3
:10709000C3FA10B120342C60EEE70120F0E700BF06
:1070A000C432002018090020802213B5074C034683
:1070B0000092032120220648019407F0AFFA10B98C
:1070C000206802B010BD0020FBE700BF10090020BF
:1070D000E031002030B5044648F2FE050A490B4A6B
:1070E000116060311068884201D3002030BD037800
:1070F0003BB1631C02D0837CA34202D14388AB42E4
:10710000F4D020301060EDE7E031002010090020BD
:1071100030B5044648F2FE050A490B4A1160603159
:107120001068884201D3002030BD03783BB1631C56
:1071300002D0837CA34202D14388AB42F4D12030F9
:107140001060EDE7E031002010090020802337B502
:107150000F4D122200930446034605210D48019568
:1071600007F05CFA01282A460FD12B6818702346D5
:10717000296804F11000023153F8044B834241F8AE
:10718000044BF9D1106803B030BD0020FBE700BF0D
:1071900014090020643200208023F7B5214C0093AD
:1071A000054603460E461746032120221E48019439
:1071B00007F034FA012832D12A46236805F110017C
:1071C00018702368023352F8040B8A4243F8040B08
:1071D000F9D12068C774DEB9012303750122236841
:1071E00012489A7440F2FF23038000234380838077
:1071F000C38003814FF480734381FF2303736B7B50
:107200004373EB89C381FFF7A1FF206803B0F0BD92
:10721000002331460375183007F0D5F8DEE700206B
:10722000F4E700BF10090020E0310020461C0020D8
:10723000802213B5074C034600920521122206480E
:10724000019407F0EBF910B9206802B010BD0020DE
:10725000FBE700BF140900206432002038B5054662
:10726000C8B140F2FF230C48002403804FF4807320
:107270004381FF2344808480C48004810373EB7BBB
:1072800043732B8AC381FFF7D3FF044A106008B110
:1072900007F0E8F92C7038BD461C002014090020C6
:1072A00038B50E4D0E4C256060352068A84206D3D7
:1072B00000F0FEFABDE838400A4807F0AEB803789F
:1072C00043B1037D33B9183007F084F810B120685A
:1072D000FFF7C4FF236820332360E6E7E031002096
:1072E00010090020243300202DE9F84F48F2FE0356
:1072F0000A8805469A4288462BD00A78FF2A28D069
:1073000000249B46A2461A4A1A4F02F160093A60CD
:107310003E684E450AD30CBB2C806C80AC80EC8060
:107320002C816C81AC81EC81BDE8F88F33786BB136
:10733000B37C012B0AD173885B4507D04046B11C52
:1073400007F09DF982459CBF3446824620363E6058
:10735000DEE70120FFF7BEFE0446DCE7A31C123483
:1073600053F8042BA34245F8042BF9D1DCE700BF06
:10737000E03100201009002070B5094EB0684508C2
:10738000FFF724FC0446FFF721FC2402B268A4B2F4
:107390002044B0FBF2F302FB1300284470BD00BF91
:1073A000C831002073B5304C01F0C8FA00F096F8EF
:1073B000602200212D4806F03BFA00212046F422ED
:1073C00006F036FA20222A4B40261A701822294B42
:1073D00000251A704FF4A06344F8043C264B04F8CF
:1073E0000469A360FFF7C8FF42F21073236148F2FB
:1073F000FE03E0602575214C2A46238031462B464A
:107400006580A580E5802046CDE90055FFF7FEFDAB
:1074100020461B4907F02AF929460122FFF7BCFE46
:1074200040F2FF264FF480732046E381268065807A
:10743000A580E58025816581A581FFF787FE4FF452
:107440000073204626806580A580E58025816581C2
:10745000A581E381FFF77AFE0C210A4802B0BDE85E
:10746000704006F0D1BF00BFCC310020C4320020F4
:10747000C1320020C0320020C0270900461C002075
:1074800040330020243300202DE9F0470546104802
:107490000F46904607F007F80446DFF83890DFF80B
:1074A00038A00CB9BDE8F087012D0DDC504607F07F
:1074B0002BF803464246394628466668B0472046C0
:1074C00007F029F80446ECE7D9F80030F2E700BFEE
:1074D000600A0020640A00209C09002008B50B48BF
:1074E00007F01CF80A4806F0DBFF0A4B0A49186847
:1074F00004F05AFB094807F011F8094806F0D0FFDC
:10750000BDE80840074806F0CBBF00BF4C0500208F
:10751000680A00202C050020BDE620002005002080
:107520009C090020600A002008B540B1044B416866
:10753000186808F031F8BDE8084007F0F6B808BD53
:107540002C050020014806F0AEBF00BF680A0020ED
:1075500008B507F0ECF8014630B1044B186808F0A4
:1075600008F8003818BF012008BD00BF2C05002016
:107570002DE9F04180460027FFF7E4FF3D46044631
:1075800084B965B1124806F08EFF854207D02946BE
:107590000F4806F092FF29460D4806F0AEFF284638
:1075A000BDE8F08194F82460BE420AD34046F20858
:1075B00004F1080106F030F818B9802E06D03746DD
:1075C0002546204607F076F80446D9E72546D9E750
:1075D000680A002038B5044600283FD04368002BD5
:1075E0003CD001461E4806F068FF6368586806F004
:1075F0005AFF054668B343689C4226D16368294612
:10760000586806F05AFF6368586806F04CFF28B9BE
:1076100063685968134B186804F072FB21461248DE
:1076200006F0A0FF2946114806F09CFF104A2046AC
:107630001368013B1360FFF777FF04F1080102466E
:10764000BDE838400320FFF71FBF284606F063FF60
:10765000CFE704F1080002F0AFFBCFE738BD00BF71
:10766000680A00202C0500204C0500204005002061
:10767000640A002010B5044680B1406870B106F07D
:1076800012FF30B9064B2146BDE81040186804F0DF
:1076900037BB4068FFF79EFF6068F0E710BD00BF92
:1076A0002C0500202DE9F84F074610468A469046E3
:1076B00007F03DF8064618B900252846BDE8F88FC2
:1076C0003846FFF755FF054660B1FFF72DFF01462D
:1076D00028B11022404605F09FFF0028EDD0284633
:1076E000FFF778FF2C4B1A689B46102AE4D02B4DED
:1076F0003146286807F03DFFA946044668B90346AD
:1077000004223146286804F07FFA04460028D3D0CA
:1077100000234060036006F0C3FE214806F00EFF20
:1077200006460028C8D001461E4806F0E6FE1E4860
:1077300006F004FF054620B93146194806F012FF4D
:10774000BBE746600146606806F0CAFEDBF8003021
:10775000214601337460D9F80000CBF8003004F002
:10776000E5FA3B4606F1080407F1100522461868C1
:107770005968083303C2AB421446F7D1002342468E
:107780003946022086F824A0B361F3613362FFF723
:107790007BFE354691E700BF640A00202C050020DF
:1077A0004C050020680A00204005002038B5054639
:1077B0000D4806F078FE044600B938BDAC420ED143
:1077C0002146094806F079FE2146084806F0CAFE1F
:1077D000221D1146BDE838400120FFF755BE204666
:1077E00006F099FEE7E700BF9C0900202005002075
:1077F00038B50546084806F056FE044608B9204646
:1078000038BD10222946201D05F006FF0028F6D0BD
:10781000204606F080FEF0E79C090020F8B50546FA
:107820000E46FFF7E5FF044640B9134806F086FE12
:107830000446E0B10146114806F05FFE2B46271DC5
:1078400005F1100C3A4618685968083303C26345BD
:107850001746F7D16EB1314604F1140006F0B3FDBE
:1078600000232A46294600202377FFF70DFE2046F5
:10787000F8BD0123F5E700BF200500209C0900208A
:1078800038B50A4806F00FFE002504460CB9284614
:1078900038BD251D284601F085F810B1437C002B2A
:1078A000F5D1204606F037FE0446EFE79C0900209C
:1078B00038B50D4806F0F7FD04460B4D04B938BD48
:1078C000237F63B904F1140006F084FD38B120462B
:1078D000FFF76CFF284606F0E6FD0446EEE720467B
:1078E00006F019FEF9E700BF9C09002037B5124BDE
:1078F000124D1C782B7905F10801C4EB03226B793A
:1079000013449BB2ADF80630BDF80630202218446F
:1079100080B206F0D5FEBDF8062004F1280192B22F
:10792000294406F0CDFE18B140BA80B203B030BD94
:107930004FF6FF70FAE700BF992900204833002076
:1079400002200021F8B5294F294D3A78294C2832D8
:1079500053195E782070F6000736864202DA19B3B2
:10796000207021E0131805EB030CEB5C012B06D013
:10797000632B09D0D3B901300121C0B2EDE7831CDC
:107980009CF801001844F7E701B1207002F09EFF57
:1079900008B90120F8BD22783B78174913440B44FD
:1079A0005B7802321A4422700020F3E703F0C00330
:1079B000802B07D0C02B0ED0402B12D10029E8D04D
:1079C0002070E6E701B12070024402210420FFF795
:1079D00025FA0220DEE701B120702B7EFF2BF3D1C8
:1079E000D7E79CF801300230CCE700BF992900208E
:1079F000483300209A2900207033002070B5C578E4
:107A0000124B0D44EDB2DD70827802EB1122D2B23E
:107A10009A704478B2EB112F5C7006781E7005D214
:107A2000601CC0B2587008B901361E70C9B28D42D0
:107A30000BDA0132D2B29A703AB95A780132D2B224
:107A40005A7012B91A7801321A7070BD3C33002096
:107A500010B5084C014620681430FFF7CFFF064AE6
:107A6000236811781975517859759178D27899757C
:107A7000DA7510BD6C3800203C33002008B5FFF7E4
:107A800091FCFFF7B5FA06F05BFE002319460F4A9A
:107A9000138053809380D380138153819381D3814A
:107AA0000B4A01330A2B82F8251002F13002F8D17B
:107AB0004FF48062074B1A8000231946064A0133AF
:107AC0000A2B118202F12002F9D108BD583A002098
:107AD00070380020561C00206C3A00200246F0B599
