:020000040020DA
:10200000887100208D222000EBB62000E9B6200068
:10201000E9B62000E9B62000E9B620000000000083
:10202000000000000000000000000000E9B62000F1
:10203000E9B6200000000000E9B62000C7B7200084
:10204000E9B72000EFB72000F5B72000FBB720006C
:1020500000000000CDB72000D3B72000E9B6200073
:10206000E9B62000000000000000000000000000B1
:102070000000000000000000E9B6200000000000A1
:102080000000000000000000E9B62000E9B62000D2
:10209000E9B62000E9B62000E9B62000E9B6200044
:1020A000E9B62000E9B62000E9B62000E9B6200034
:1020B000E9B62000E9B62000E9B62000E9B6200024
:1020C000E9B62000E9B62000E9B62000E9B6200014
:1020D000E9B6200000000000000000000000000041
:1020E00000000000000000000000000000000000F0
:1020F0000000000000000000313F2000413F2000B0
:1021000000000000000000000000000000000000CF
:1021100000000000000000000000000000000000BF
:1021200000000000000000000000000000000000AF
:10213000000000000000000000000000000000009F
:10214000000000000000000000000000000000008F
:10215000000000000000000000000000000000007F
:10216000000000000000000000000000000000006F
:10217000000000000000000000000000000000005F
:10218000000000000000000000000000000000004F
:10219000000000000000000000000000000000003F
:1021A000000000000000000000000000000000002F
:1021B000000000000000000000000000000000001F
:1021C000000000000000000000000000000000000F
:1021D00000000000000000000000000000000000FF
:1021E00000000000000000000000000000000000EF
:1021F00000000000000000000000000000000000DF
:1022000000000000000000000000000000000000CE
:1022100000000000000000000000000000000000BE
:1022200000000000000000000000000000000000AE
:10223000000000000000000000000000000000009E
:10224000000000000000000000000000000000008E
:10225000000000000000000000000000000000007E
:10226000000000000000000000000000000000006E
:10227000E9B62000193E20003D3E2000F134200048
:10228000A5402000A12F2000E9B62000FF2248240D
:1022900008B5084B08481A60084AE3690849121A49
:1022A00098470848084A0021A369121A984700F085
:1022B0000DF8FEE7B4200D40404000200142002010
:1022C00060D2200008420020836900202DE9F341FC
:1022D00000F0AAFF01F0A2F801F000F800F0C2FD42
:1022E00001F0CEFE09F046FB01F090F800F0CCF8CA
:1022F000012009F0FDF902F057FE00F081FF0020F7
:1023000000F0A2FE012000F09FFE4B49002000F0EB
:1023100061FF02F08FFF09F05FFA042009F0E8F98D
:10232000464809F08FFA464809F08CFA00F038FD6B
:10233000002003F02BF801F095FD0021414802F048
:10234000BFFE02F027FD09F001FA01F0F3F801F0F9
:102350000FF907F0A9FE0821684601F0B5FE9DF8C7
:1023600006309DF80760384C46EA03266B4603CBDF
:1023700020606160354802F035F800272546DFF817
:102380000481404614F8011B013702F02BF8072F97
:10239000F7D12F4FE9792F4802F024F8FC6A4AF66A
:1023A000CD310220A04731460320A0471A21012049
:1023B000A047694608227B6B0B209847264802F00D
:1023C00011F8264B186809F03DFA254802F00AF882
:1023D000244B186809F036FA234802F003F8234B1F
:1023E000186809F02FFA224A2B6813606B68536053
:1023F00007F084FB00211F4802F062FE00211E4806
:1024000002F05EFE1D4B01219B688120984709F078
:1024100086FA1B4809F079FA00F0F8FE022009F06C
:1024200067F900F0F9FE02F0D7FD10F0FF0FF8D1C8
:1024300001F0BAFDF5E700BFED512000BACE200053
:10244000D6CE2000784000207B690020FBCE200003
:1024500080CD20001FCF200025CF200048CE2000B7
:102460002CCF200060CE200033CF20007CCE200077
:10247000605F00201C410020A8400020E8CC200024
:10248000ACCE200019CF200008B500F03DF90022A5
:10249000014B1A7008BD00BFE0560020024B1A78AD
:1024A0001043187000F054B9E0560020034A137826
:1024B00023EA0000107000F04BB900BFE056002086
:1024C00008B50B4B1B7803420FD020280BD00428F3
:1024D0000BD10220074B80211A7800F0C9FF20EAB7
:1024E000E07000B208BD0520F4E74FF00040F9E7C6
:1024F000E2560020E1560020802810B50C4605D099
:10250000B0F5807F29D04FF0004025E08B1E222BB4
:10251000F9D8184A136823EA0103136052F8203CE3
:1025200023EA010342F8203C8A0604D50122052152
:10253000002000F081FF630704D501220221002062
:1025400000F07AFF00F08CFF30220B4B1A700B4B1F
:10255000187820441870002010BDC8B2202803D07D
:1025600005D810F0EF0FCED1034B1870F4E73028E8
:10257000FAD0C8E720940D40E1560020E256002032
:1025800018B1012804D000207047034B1868704729
:10259000024B1878704700BF20900D40E356002092
:1025A00010B5094A0020137801331370074B1978CE
:1025B00002F05EFDBDE8104005490023054A0968A8
:1025C000054802F01DBC00BFE356002072690020E0
:1025D00040420020A125200020420020812810B583
:1025E0000C462BD0B0F5807F3AD0802824D102F061
:1025F000D3FC1D4B1D4A18701368032123F00803F8
:10260000136052F8203C002023F0080342F8203CDD
:1026100052F81C3C23F0080342F81C3C52F8183CCA
:1026200043F0080342F8183C042200F005FF03229F
:1026300000210F4800F0A4FE012408E00D4B1A68A9
:1026400039B142F0080200201A6000F00BFE20466B
:1026500010BD22F0080208461A6000F011FEF6E7ED
:10266000054B1960E8E700BF7269002020940D4017
:102670007D26200010940D404042002008B50F48F0
:1026800009F08CF9C8B108210C4809F075F90C4B18
:10269000196849B100220B4B1A700B4B1B6843B9E8
:1026A0000A4A0B4802F0ACFBBDE80840094802F0BA
:1026B0003DBE074802F0E6FBF6E708BD18420020E1
:1026C00040420020E356002020900D40A12520002C
:1026D00020420020E8CC2000084A136823F00403BD
:1026E000136052F8203C43F0040342F8203C0022DF
:1026F000034B1A600122034B1A70704720C40D402F
:1027000010C00D40E45600200D4A0E49136823F016
:10271000C003136052F8203C43F0C00342F8203C51
:102720000022094B1A600B6823F010030B6051F86C
:10273000203C43F0100341F8203C044B1A607047E2
:1027400020A40D4020C40D4000A30D4040C00D400A
:1027500010F0020218BFFF22084B1A6010F00402AA
:1027600018BFFF22064B10F001001A6018BFFF22AD
:10277000044B14BF1A601860704700BF00A20D40E0
:1027800000A10D4040C00D40812810B50C461ED15F
:10279000104A05211368002023F02003136052F82B
:1027A000203C23F0200342F8203C082200F044FEA5
:1027B000FF22094B1A600022084B1A70084B24B103
:1027C000012114461970204610BD1C70FBE74FF024
:1027D000FF34F8E720940D4080900D40E55600202E
:1027E000EB560020431E022B2DE9F74F804600F2E6
:1027F0009E80574D95F80090B9F1000F40F0A480ED
:1028000001232B70534B544E1B78544F002B00F078
:1028100086803368524C43F020033360FF233B60D3
:1028200000F080FB241A00F07DFBC4421ED400237C
:102830004C4CDFF834A1236023713B6000F072FB45
:10284000AAEB000A00F06EFB1AEB000F11D44FF058
:10285000FF0A4FF0000B1420C7F800A000F03EFB69
:10286000336823F02003336000230DE000F0D4FC34
:10287000D9E700F0D1FCE5E70120019300F02EFB41
:10288000019B0133FF2B48D03A68D9B25245F3D0AF
:102890003B68FF295FFA83FA1BD0BBF1030F11D904
:1028A0001BF0010F0ED14FEAD902A35C08294FEAB1
:1028B0004303DBB288BF43F0010309F10109A354CC
:1028C0005FFA89F90BF1010B5FFA8BFBBBF1550F36
:1028D000CAD1B9F1270F22D9627823781344A2789C
:1028E0001344E27813442279DBB29A4217D1336859
:1028F000B8F1020F23F0200333604FF0FF033B6079
:1029000018D0B8F1030F21D00022A0782A7000F06F
:102910007F03E07800EB032013E01946B8E7336843
:1029200023F020033360FF233B6000232B704FF024
:10293000FF3006E02378607800EB0320002380B2AC
:102940002B7003B0BDE8F08FFF20FAE70020F8E716
:10295000E5560020EB56002000940D4080900D407D
:1029600000E0FFFFE656002071FDFFFF38B50C4682
:10297000054610B94FF0FF3038BD0029FAD00320CA
:10298000FFF730FF0130F5D00020084A937803F0BC
:102990007F01D37803EB012305492B60537808703E
:1029A000117803EB01239BB22360E5E7E656002094
:1029B000E5560020813801289ABF024B1878002084
:1029C000704700BFEC56002010B5038804464BB199
:1029D000FA2B0BD1822907D108F0C9FE054B002044
:1029E0001B689847FA232380012002E0002303801C
:1029F000032010BDDC5D0020014802F079BB00BF60
:102A00005040002030B581280D4685B007D0431EC8
:102A1000032B73D94FF0FF34204605B030BD002999
:102A20005FD00222824B114610460093032301F02F
:102A30009BFB00227F4B02211A604FF4687303A8AE
:102A4000ADF80C3008F084FE0028E3D1292003A95A
:102A500001F018FC0028DDD19DF80C4004F00F04B3
:102A6000032CD7D10122AA2003A908F090FE002848
:102A7000D0D19DF80C3003F0F003502BCAD10122C5
:102A8000A12003A908F083FE0028C3D19DF80C30D3
:102A9000694A03F010011170684A03F003031370D0
:102AA0004FF6A473ADF80C30FF23214603A88DF830
:102AB0000E3008F04DFE0028ACD1A2238DF80E0098
:102AC000214603A8ADF80C3008F042FE0028A1D141
:102AD00008F04DFE044600289CD10122584B1A7084
:102AE0009AE7A023022103A8ADF80C3008F030FECD
:102AF000044600288ED1524B1C708DE7504B1B783A
:102B0000002B87D0032810D14E4A0221136803A856
:102B100023F001031360A623ADF80C3008F018FE73
:102B2000003818BF0120444276E704282AD1122930
:102B300002D002293FF66EAFA123022103A88DF82F
:102B40000C308DF80D5008F003FE044600287FF489
:102B500061AF122D05D10122374B1A700222374B7B
:102B6000BDE7012D0BD004DC002D7FF455AF334BB6
:102B7000C2E725F01005022D7FF44EAFEEE72F4B94
:102B80001D7049E7C1F3072501288DF80D108DF858
:102B90000E5049D1A4238DF80C30032103A808F06E
:102BA000D7FD00287FF436AF41F2A623022103A807
:102BB000ADF80C3008F0CCFD044600287FF42AAFB5
:102BC000214A0321136823F00103136052F8203CCB
:102BD00023F0010342F8203C52F81C3C23F001038F
:102BE00042F81C3C52F8183C23F0010342F8183C10
:102BF00052F8143C23F0010342F8143C02461348F7
:102C000000F0BEFB2146124802F05AFA0D4A214656
:102C10001368032043F001031360042200F00CFC4E
:102C2000032000F01FFBF7E60228B6D1A223B2E78B
:102C3000A0860100DC5D0020ED560020EE5600204D
:102C4000EC56002010C40D4020C40D40F92920008E
:102C50005040002007B5404B1B783BB1012805D1FF
:102C60000222AC2001A908F092FD10B14FF0FF3014
:102C70003BE00222AE200DF1060108F088FD00289D
:102C8000F4D19DF805309DF804209DF8071042EA24
:102C900003229DF8063043EA0123304909780229CE
:102CA0009CBF2F4830F811002E49097801B9000166
:102CB00042434343920A4FEA93201DBF23F47F739C
:102CC00023F00303B3FBF2F313460133812B4FEAE6
:102CD00053010DD84FF4F9735A434FF4D97303FBE2
:102CE000102000F50050C0F38F3003B05DF804FBF6
:102CF000802905D84FF405735A4340F2D123EEE7FB
:102D0000C02905D840F23F235A4340F27B33E6E71F
:102D1000B1F5807F05D84FF41C735A4340F2FE335F
:102D2000DDE7B1F59C7F05D840F26F135A434FF4AD
:102D3000FE73D4E7B1F5CD7F03D8D2235A43FB23EA
:102D4000CDE740F29A23994203D818235A4312231D
:102D5000C5E70020C5E700BFEC560020EE56002076
:102D6000B4CE2000ED560020044B1B68C3F30720AF
:102D700013F4704F04BF1030C0B270471C300D40C8
:102D8000064B1868C00910F0060F03BF00F00700DB
:102D9000C0F1020040034FF40040704714300D4072
:102DA0002DE9F047482488B0FFF7DEFF164B0646B2
:102DB0001F68A36898476368804698470446FFF7F2
:102DC000DFFF054600F0C4FA814600F0CDFA8246E6
:102DD00000F07AFAAD0A07F00103A40AC7F340072E
:102DE000CDE905A003934146CDF8109002970195D7
:102DF000009406F00F03C6F30712044801F0F2FA3C
:102E000008B0BDE8F08700BF1C300D409ACF20000D
:102E10002DE9F84300F086F810490246D1E9004553
:102E2000AC46A04238BF05F1010C6346C1E900235E
:102E30000B48D0E90089B8EB040169EB05048E1852
:102E400044EB0C07C0E9006701F044FF18B1BDE88E
:102E5000F84301F0C3BEBDE8F88300BF1042002074
:102E6000084200200F4B104A1A6053F8042C42F01D
:102E7000050243F8042C53F8042C42F0020243F8F4
:102E8000042C0A4A136843F0010313600022084B24
:102E90001A60042243F80C2C012243F8082C0F225C
:102EA000DA62704714E000E047E8010008200D40B6
:102EB0000C000340034BD3E90023100A40EA0360EF
:102EC000704700BF10420020034BD3E90023D00B12
:102ED00040EA4340704700BF08420020054B18609D
:102EE00053F81C2C1C3B42F001021A601A68D207EE
:102EF000FCD470472800034010B5064C236823F02B
:102F000001032360FFF784FF236843F0010323607C
:102F100010BD00BF10E000E0014B1868704700BF13
:102F200044420020064B18685A6808331B681B048B
:102F300043EA0223034A0343106843EA00607047F0
:102F400040500D404C500D4010B50446114A1368D6
:102F5000DB07FCD508F044FCFFF7E4FF231A062B3F
:102F6000D8BFC41D0C4B220E1A60C4F3074243F8AD
:102F7000042CC4F3072243F8082CE2B243F80C2CCB
:102F800008F02AFC054B91201C60BDE8104000F0C1
:102F900069B900BF50500D404C500D4044420020D4
:102FA00008B500F0E9FF0022054B91201A6000F0FF
:102FB00075F9912000F064F9BDE8084002F0B6B858
:102FC00044420020064B1B681B075FBF054B186877
:102FD00080F00800C0F3C00048BF0020704700BF69
:102FE00018C0004018D000402C23154A70B503FBD0
:102FF00000234FF6BF72DC680546236C626413F051
:1030000050020DD00F4EA369DB0600D570BD56F8F7
:1030100025301BB12068C0B29847F4E72368F2E777
:1030200013F4D06FF2D04FF440732363FF23636037
:10303000E36AE262E362236B43F001032363E5E7A3
:1030400018CD2000484200202DE9F04F0128064607
:1030500085B000F2B0802C254543584F7C1994F977
:103060002090B9F1000FC0F2A68094F922B0BBF114
:10307000000FC0F2A0804FF00008514800F0EEFFB2
:10308000504978590A6894F921A002430A604A68B5
:103090006068E56802434A608A68A06894F9233052
:1030A00002438A6022690AEBC901C5F8C88F116022
:1030B00094F823105FFA8BF0227D0193CDE9020191
:1030C00000F0C4F9DDE90201082200F0B5F901239E
:1030D0003D494FEA0B32019852F801C003FA00FB58
:1030E0004BEA0C0050504FEA093959F8012003FA15
:1030F0000AFA4AEA020249F801205022AA63AA6B9E
:1031000094F9240042F4D062AA6302226A634FF465
:1031100040722A63A26940456A62E269AA624FF07E
:103120007002EA620D4614DB94F92510274A41EA41
:10313000C0041460020354598B4023435351C9B255
:103140004246C0B200F078F9214A136843F40043C4
:1031500013602C2303FB067393F92640002C1BDB22
:1031600093F827905FFA84F801224946404693F984
:1031700027A000F06BF901232403625903FA0AF334
:103180001343635108224946404600F055F9104A5E
:10319000136843F4804313602C2000FB0676F2682A
:1031A00096F82800136B43F00103136305B0BDE8E4
:1031B000F04F00F057B805B0BDE8F08F18CD2000F3
:1031C000C52F200028200D4020940D4004410D40C3
:1031D00030D0004001289CBF014B43F820107047BD
:1031E00048420020012808D82C22044B02FB003062
:1031F000C3689A699206FCD41960704718CD200004
:103200000022014B1A60704700500D400822014B0C
:103210001A60704700500D40A022024B1A605022E5
:103220001A60704700500D40074B084A1A60084B5F
:1032300080321A60074B80321A60074B80321A6066
:10324000064A074B1A6070475442002000E100E034
:1032500050420020584200205C4200200020200004
:1032600008ED00E0054B41091A68012300F01F003A
:1032700003FA00F042F82100704700BF54420020DA
:10328000054B41091A68012300F01F0003FA00F002
:1032900042F82100704700BF50420020054B410911
:1032A0001A68012300F01F0003FA00F042F8210021
:1032B000704700BF5C420020024B1868C0F3815089
:1032C000704700BF04200D4008B5FFF7F5FF024B23
:1032D00053F8200008BD00BF70CD200038B5164D52
:1032E000164C2B68012223F040032B602368062133
:1032F00023F040030320236000F09EF82B68012296
:1033000023F080032B602368072123F080032360D0
:10331000032000F091F80A4B0A4A0B491A600B4A45
:10332000134610680842FCD11A685101FCD41A688F
:103330005201FCD538BD00BF20C40D4000C40D4073
:1033400000200D40010102000000010104200D4099
:10335000034B04481B6803F007031841704700BF84
:1033600004200D400048E801034B04481B68C3F3E8
:1033700002231841704700BF04200D400048E801B7
:10338000024B02EBC10243F822007047604200206A
:10339000F8B507460D460024084E06EB411647FADD
:1033A00004F3DB07E1B204D556F824300BB128460C
:1033B00098470134082CF2D1F8BD00BF60420020CC
:1033C0002DE9F8430546DFF8408000F0D5FD0C4BB1
:1033D0002E03F75856F808404FEAC50924FA09F4B5
:1033E00047EA04002946C0B2FFF7D2FFE4B2054B1A
:1033F000FFB204FA09F4F75046F80840BDE8F88334
:1034000018940D401C940D4018970D408022002107
:10341000014808F019B900BF60420020034B044A7C
:103420001A60044B803A1A60704700BFE0420020E7
:1034300080400D40E4420020034B01EBC0011B68BB
:1034400043F82120704700BFE0420020034B01EB0E
:10345000C0011B6843F82120704700BFE4420020F0
:10346000024A136843F030031360704700700D4048
:103470000E2870B506460BD1134B1C6844F00200B1
:1034800018601248056825F03F0343F0010303600C
:103490000F48036823F0FF031A43114331430D4AD9
:1034A000016013681B06FCD50B4B0C4A1B681068A7
:1034B00003F0FC0343EA00230E2E18B201BF034BB6
:1034C0001D60014B1C6070BD34000144F48608404F
:1034D00008700D4000700D400C700D4010700D40D4
:1034E000024B1868B0FA80F04009704700B70840F6
:1034F00010B58F20064CFFF7D1FE8F20FFF7C0FEDE
:10350000206818B101F0F4FD0023236010BD00BF56
:10351000E8420020064A136843F002031360536830
:1035200043F002035360936843F0020393607047D3
:1035300048200D4007B50C4800F090FDFFF7EAFF6A
:103540000A4B1A6842F002021A6000220192019AA4
:103550000F2A06DD1A6822F002021A6003B05DF835
:1035600004FB019A0132F1E7E134200054200D40C0
:10357000064A136823F002031360536823F0020322
:103580005360936823F002039360704748200D4016
:103590000B4B1A689207FCD41B685B065FBFED22D9
:1035A000084B1A601A60084B1B6813B1EF22054BD9
:1035B0001A60064A0120137803F07F0313707047E6
:1035C0004C860840388808402C860840F156002078
:1035D000044B186800F02200A0F120035842584123
:1035E000704700BF4C860840024B186800F040004E
:1035F000704700BF4C860840084B93F90020002A12
:1036000009DBED21064A11601160E32111601A788F
:1036100062F07F021A700120704700BFF15600204F
:1036200038880840A0F10B01CBB20F2B10B504462F
:1036300013D80B4B1B6813F03F0302D0FFF7A8FF12
:103640000123084A01EB81010B3111600BB1FFF737
:10365000D3FF054B60B21C7010BD4FF0FF30FBE78D
:10366000488608403C860840FE41002010B50C46C4
:10367000002900F08680102800F28580DFE800F045
:1036800009101B22243B44575C727683837B7D5454
:103690007F003E4B1B68003B18BF0123236024E0E2
:1036A00005223B4B1B6803F07F030B3B93FBF2F3BC
:1036B0000B33DBB2F2E7374B1A68043B1B6843EA73
:1036C0000223EBE7344BF7E700230B60334B344A1C
:1036D0001B6803F001030B601268900644BF43F0BF
:1036E00002030B602F4B1B780BB900200BE00B681B
:1036F00043F00403D2E700202B4B08601B78002B1B
:10370000F3D001230B6010BD284B29491A68002310
:10371000D2B201EBC3000079904202D851F83330A5
:10372000BCE701330E2BF4D16FF01703B6E7214B42
:103730001B685BB2493BB1E71F4B1B6899060FD171
:10374000FFF75AFF01231D490A68D207FCD51C4A1E
:103750001168493949B20BB1FFF71AFF2160C4E77C
:103760000023F0E7174B93F9003097E7164B1B78CF
:1037700003F07F0392E70B2390E71A238EE70723DA
:103780008CE70220BFE70120BDE700BF2C86084080
:103790003C860840CC850840D48508400086084017
:1037A00024860840F0560020FF4100204086084053
:1037B000B8CD2000588608404886084064860840F6
:1037C00060860840F2560020EF56002008B50B4BEB
:1037D0001B6899060FD1FFF70FFF012308490A68FC
:1037E000D207FCD5074A1168C1F300110BB1FFF7EE
:1037F000CFFE084608BD0023F0E700BF488608401A
:10380000648608404C86084038B505460C46134A85
:1038100013689B07FCD4124B93F90030002B01DB9B
:10382000FFF7EAFEEE220F4B691E1A601A60A21C17
:1038300043F8102C2144022000F02CFB0A49013CE3
:1038400041EA0411022000F037FB022000F03EFBA9
:10385000022000F053FB002038BD00BF4C8608401A
:10386000F15600203888084002C001C0F8B5224B4C
:1038700093F90030002B18DBFFF754FB0446FFF7E9
:10388000BBFEC4F1FF2404F57F04F634FFF74AFBC6
:10389000C442FBD40126194B1B7843B9184C23684A
:1038A000990609D502210846F8BD0026F3E7FFF77F
:1038B0008DFF0028F2D1F5E7E9230427114D2B6095
:1038C00023689A0703D4013F17F0FF070BD1236841
:1038D0009B070CD4EE2301212B602B60002EE2D03D
:1038E000FFF756FEDFE70620FFF7F8FAE8E7216862
:1038F00011F00201FBD1F1E7F1560020FF41002059
:103900004C860840388808400B280DD1082A0DD174
:1039100061B1074B074A083111F8010D43F8040B58
:103920009342F9D100207047012070470220704770
:10393000A8850840C885084070B52F4E02463068FB
:1039400010F0400008D02D4D2868040605D5ED2262
:1039500000202B4B1A601A6070BDC0B20428F6D943
:1039600002388842F3DCC4B2032C1ED12B681370DA
:103970002B6853702B6893702968224B493949B2E0
:1039800019702B68204D18062B70E0D589B20420E1
:1039900006F060FB2978032001F07F0106F05AFB56
:1039A0001A4B1B78CBB12046D6E7111903200139F9
:1039B00000F078FA164B611E032043EA011100F073
:1039C0007BFA032000F082FA032000F097FA03202C
:1039D00000F0A0FA0028FAD1CEE733685A06E2D503
:1039E00033681B0603D50B4801F082FBDBE7ED22B1
:1039F000034B1A601A60D6E74C86084028880840B6
:103A000038880840F2560020EF560020F05600207B
:103A100002C0010C604000201E4B1870002830D0FE
:103A20001D4A13681B03FCD51C4B1A6842F00202A6
:103A30001A601A6842F001021A601A685007FCD531
:103A40001A6822F001021A601A685107FCD41A6839
:103A500042F002021A601A6842F001021A601A6803
:103A60005207FCD50E4A8D20136823F0040313601F
:103A7000D2F8A83102F5D47223F004031360FFF7E3
:103A8000FFBB074A8D20136843F004031360FFF760
:103A9000E9BB00BFF056002004200D400488084018
:103AA0008C86084008B507285FD8DFE800F0040FCF
:103AB0001A2124404659012903D1FFF79DFD00201A
:103AC0003AE0002953D1FFF763FDF8E7A1F10B03BA
:103AD0000F2B4CD8C8B2FFF7A5FD0130EFD1032062
:103AE0002AE0244BCAB2C1F307211A605960E6E705
:103AF000214BCAB2F7E731F0070338D11F4B11F061
:103B0000010F1A68C1F3800014BF42F0010222F0D5
:103B100001021A601A4B11F0020F1A6814BF42F02A
:103B2000200222F020021A60FFF776FFC7E731F08B
:103B300001001CD1134B197008BD01F118031F2B94
:103B400015D80D23104A52F83300814205DC02EBF0
:103B5000C3031A790D4B1A60B1E7013BF3D2AEE70C
:103B60000B4BC9B249311960A9E70120E4E70220F3
:103B7000E2E700BFC8850840D085084000860840BD
:103B800024860840FF410020B8CD20004086084030
:103B900058860840F8B5294F3D7815F001054BD1FE
:103BA0000124F822264B7F261C605C609C60A3F5F4
:103BB0009323A3F514731A600922C3F890211522E8
:103BC0001A670B22703303F59B23C3F83C21402274
:103BD00003F59E73A3F59B23A3F5F0731A601A688F
:103BE00042F020021A60D52243F81C5CDE62DA61E2
:103BF000144B1878FFF716FD134B8E201E60FFF74D
:103C000031FB022000F06EF91049022000F04AF961
:103C1000032000F067F90D49032000F03BF90C4B3D
:103C20001878FFF7F9FE0B48294601F049FA2046BB
:103C30003B7823433B70F8BD0020FCE7F1560020A1
:103C4000A8200D40FE4100209486084028880840A6
:103C5000F05600206040002038B50388044653B376
:103C600040F20342934233D11B4B18781A4638BBBB
:103C7000822923D1137873B906F092F906F024F95A
:103C80008021FFF759FE002805DD80B206F000F91B
:103C9000124B1B699847124B1A7852060BD500221B
:103CA0001A70104B1D68FFF773FCFFF773FFAB062C
:103CB00001D0FFF7A1FC40F20343238001200AE07A
:103CC0001B78002BFAD0064B1B785806F6D5CFE7A9
:103CD00000230380032038BDF05600207CCE200056
:103CE000F1560020488608400B282DE9F0470C4685
:103CF0000FD1082A79D1002977D03D4B3D4A4C1E7F
:103D000053F80419934204F8011FF9D10020BDE8CB
:103D1000F0870C2867D1042A67D1002965D0364B7B
:103D200036491A68DFF8E48022F007021A600A6850
:103D3000334F42F008020A60D8F800003A681D6864
:103D4000DFF8CCE0DFF8CCC025F070051D60DEF8B0
:103D50000050DCF80060C0B2120240EA066092B285
:103D600002434FEA0549274809F47F09D0F800A02B
:103D700042EA09061A685FFA8AF522F0070242F061
:103D800001021A600A6842F008020A60D8F80020AE
:103D90003F68196821F0700141F010011960DEF8E8
:103DA0000010DCF800C0D3B23A0243EA0C6392B2CE
:103DB00013430A04016802F47F0243EA02085FFA2F
:103DC00081F9FFF7AFF8B6EB080165EB0905ED03E4
:103DD00007460023C8030C4A45EA514107F0ACF9F5
:103DE0003F1A276092E7012091E702208FE700BF8A
:103DF000C4850840A485084010880840048808400D
:103E0000188808401C8808400048E80114880840C9
:103E1000248808402088084008B5054B1B7813B952
:103E2000044801F065F90022034B1A6008BD00BF89
:103E3000F05600206040002034880840064B0748B8
:103E40001A68042A1FBF06490A7842F040020A7025
:103E500000221A6001F04CB92C8808406040002014
:103E6000F156002008B5094B40221846002107F002
:103E7000EBFB0121064A116050602E20FFF7F2F99A
:103E8000BDE808402F20FFF7EDB900BF004000203B
:103E900004F00F4003289EBF014B000119507047EA
:103EA0000040002003289EBF024B03EB001041603E
:103EB000704700BF0040002003289EBF024B03EB69
:103EC00000108160704700BF00400020032806D822
:103ED0000123034A03FA00F0116808431060704799
:103EE00028F00F40032806D80123034A03FA00F004
:103EF000116808431060704720F00F40032806D86F
:103F00000123034A03FA00F0116808431060704768
:103F100014F00F4003289FBF044B03EB0010806890
:103F200000F0070088BF0020704700BF004000205D
:103F30004FF0FF32014B1A60704700BF04F50F408D
:103F40000122014B1A6070474CF00F40084B194694
:103F50001A68D002FCD4074B1A6822F480321A6027
:103F60000A68D203FCD41A6842F400321A6070471F
:103F700004200D4000200D4010B5094C2268900728
:103F80000DD0084B1A4619684901FCD413685B012F
:103F9000FCD5FEF7B1FFFFF7D9FF0023236010BD6A
:103FA00058200D4004200D4038B5264B1C6814F0F5
:103FB0003F0414D1244D55F8043B23B1984770B108
:103FC0000134052CF7D1214D2B7843B1FEF7A4FF26
:103FD0000446FEF7A7FF201A092800D90CB930BF04
:103FE00027E01B4B1A6822F400321A60194A114666
:103FF0001068C002FCD41A6842F480321A600B6860
:10400000DB03FCD5FEF78EFF241A092C03D8BDE88C
:104010003840FFF79BBF632C0F4C0BD92B78022B3A
:1040200008D1236001F01AF830B1FFF78FFF0023A9
:10403000236038BD0123F4E7FEF76EFF0028F4D0BB
:10404000CDE700BF48860840EC420020F356002030
:1040500000200D4004200D4058200D40074A10B5A7
:104060000023144652F8041B814202D011B944F8CF
:10407000230010BD0133052BF4D1FAE7EC420020F8
:104080000022054B1A60054A136843F004031360CD
:104090000222034B1A70704758200D4010ED00E0CB
:1040A000F356002010B59020064CFFF7F7F890204B
:1040B000FFF7E6F8206818B101F01AF80023236032
:1040C00010BD00BF0043002070B5184B1A78431E86
:1040D00052B101F52011164A273191421AD011F838
:1040E000010903F8010FF8E7124A1278122AF0D1F9
:1040F000114A12784B2AECD14C0804F520120C4DD1
:104100002732AA4207D1002301F52011204427318C
:10411000A34205DB70BD12F8016903F8016FF0E7F7
:10412000CA1A1278013300F8012BF1E72B0028009E
:10413000270028002A00280029002800024A1368C6
:1041400043F01003136070472000024014235843CB
:10415000034B044A0344B3FBF0F3013B1360704785
:10416000FF23F4000C0002402DE9F0471646274AD1
:104170001F461368264C43F00103DDF820A01360AE
:104180002368804643F00103236032208946FEF70E
:10419000A5FE23681F4823F00103236001244FEA92
:1041A0000832135804FA09F123EA010313503303C8
:1041B0001D58BC4025EA04051D50174D50590143B8
:1041C00051515A59494614435C5140460022FFF769
:1041D00033F9394630460022FFF72EF90F4B49EAF2
:1041E000C8021A6047EAC6025A60494640460B2296
:1041F000FFF72CF9304639460C22FFF727F9FFF775
:104200009DFF5046BDE8F047FFF7A0BF38200D40A6
:1042100044200D4000940D4020940D402C410D4051
:10422000024B18600120FEF759BE00BF0400024097
:10423000024B186800F00100704700BF0400024004
:10424000054B1B68D8B2DB0704D410F0120F08BF6F
:1042500000207047002070470400024008B5074B5B
:104260004000186007209960FFF7DAFF044A1368DE
:10427000DB07FCD4BDE80840FFF7E2BF00000240C6
:10428000040002400A4B400040F0010010B51860E5
:1042900007200C46FFF7C4FF064A1368DB07FCD46F
:1042A000FFF7CEFF10B9044B1B68237010BD00BF91
:1042B0000000024004000240080002402DE9F843DB
:1042C0000C461546002A3AD0002938D0012A04D1DC
:1042D000BDE8F8430978FFF7C1BF1A4A43001360ED
:1042E0000B78194F03203B60FFF79AFF174B984656
:1042F0001A68D107FCD4FFF7A3FFE0B1BDE8F8438B
:10430000FFF79EBFA35D01203B60FFF789FFD8F850
:104310000030DA07FBD40136F6B2B145F2DC2C44AA
:1043200014F8013C05203B60FFF77AFFD8F8003015
:10433000DB07FBD4E2E7012605F1FF39EDE780203A
:10434000BDE8F8830000024008000240040002407B
:104350002DE9F8430C461546002A3AD0002938D0FA
:10436000012A03D1BDE8F843FFF78CBF1A4A430086
:1043700043F0010313600B20FFF752FF174B9846E1
:104380001A68D107FCD4FFF75BFF90B90126144FE0
:1043900005F1FF393B682370B1450EDC0520FFF7BE
:1043A0003FFFD8F80030DB07FBD43B682C4404F80F
:1043B000013CBDE8F843FFF743BF0920FFF730FF9A
:1043C000D8F80030DA07FBD43B68A3550136F6B2C3
:1043D000E2E78020BDE8F8830000024004000240CC
:1043E000080002400FB407B504AA52F8041B0448A1
:1043F000019200F021F803B05DF804EB04B07047BF
:104400007040002070B505460C460A4E102C07D8A7
:1044100074B122462B6868680649BDE870401847A9
:10442000102231462B686868984710B9103CEDE7B8
:10443000204670BDBAD020002DE9F04F0746154642
:1044400000268FB00791079B1B78002B00F09C8300
:10445000079B1A781C460133002A00F08583252A21
:10446000F7D1079B9C4205D081E323784644002B7B
:1044700000F08A836278631C002A00F085830024A0
:10448000184610F8012B19462B2A17D00BD8202AD2
:1044900017D0232A18D0A2F1310CBCF1080F3FD855
:1044A0004FF0000A18E02D2A04D0302AF3D144F04E
:1044B000100401E044F001040346E1E744F006047F
:1044C000FAE744F00204F7E744F00804F4E70A21AD
:1044D00001FB0A2AAAF1300A194613F8012BA2F1AE
:1044E00030000928F3D90B782E2B37D14A784B1C92
:1044F000A2F13000092829D84FF000081A7819468F
:10450000A2F13000092803F1010319D90B786C2BB3
:104510006FD14B786C2B24D144F08004023123E01E
:104520002A2A0AD1D5F800A00146BAF1000F05F1F8
:104530000405B8BF44F00104D5E74FF0000AD2E704
:104540000A2101FB0828A8F13008D7E72A2A04D15C
:10455000D5F8008002310435D8E719464FF0FF380E
:10456000D4E7013144F060040B78782B0CD8572B3A
:104570004BD8472B08D8402B00F29080002B00F03E
:104580000383252B00F0D3804B1C079304F4E063D6
:10459000B3F5A06F00F0C98200F2CC80B3F5407F84
:1045A00000F07282B3F5806F00F03682B3F5807F41
:1045B0007FF449AFB8F1000FACBF24F010044FF006
:1045C000010814F4005204F0E003069200F0EA80BF
:1045D000402B00F0E08000F2C280002B00F0DE8073
:1045E000202B00F0C78000220023CDE90023002308
:1045F000CFE0682BB8D14B78682B02D144F020046F
:104600008CE7013144F04004AEE7583B202BBBD887
:1046100001A252F823F000BFE146200089452000A6
:1046200089452000894520008945200089452000D2
:104630008945200089452000894520000B4720003E
:104640008945200017472000C9462000F346200076
:10465000E7462000FF46200089452000C94620008B
:104660008945200089452000894520008945200092
:1046700029472000D54620002347200089452000F7
:10468000894520001D47200089452000CF46200095
:104690008945200089452000DB462000413B062B50
:1046A0003FF672AF01A252F823F000BF114720007D
:1046B000894520008945200089452000F9462000D1
:1046C000ED4620000547200044F424545CE744F400
:1046D000106459E744F4885456E744F4C85453E747
:1046E00044F4B24450E744F400744DE744F4844485
:1046F0004AE744F4024447E744F4424444E744F4BC
:10470000813441E744F4A1343EE744F4C1343BE74B
:1047100044F4E13438E744F4A06435E744F48064B9
:1047200032E744F440742FE744F4E0642CE744F4A7
:10473000C06429E7B3F5C06F07D0B3F5E06F7FF42D
:1047400082AE2B6804351E607DE601223B68A949D4
:1047500078689847002840F01582013673E6602B90
:104760001CD0802B7FF43FAF073525F00705F5E817
:10477000022303E095F90020D3170435002A73F1D2
:104780000001BFF632AF524263EB4303CDE9002391
:104790000123039317E0B5F90020EDE72A680435FB
:1047A000D317EBE7402B00F0B08000F29A80002B8B
:1047B00000F0AD80202B00F0A180069B0022039327
:1047C0000023CDE9002304F4C053B3F5805F00F06B
:1047D000D580B3F5C05F00F0D680B3F5006F00F070
:1047E000B78000230DF1360B0493049B41F20802BD
:1047F000984588BFA8EB030841F6080304EA0301C3
:1048000098BF4FF0000891421A4604D1B8F1010F49
:1048100038BF4FF00108049B914203EB080040F0C1
:10482000CC80DDE90023134300F0C780724914F403
:10483000804F724B4FF0020918BF0B46069A72B1B7
:10484000039A002A40F0BD8004F00602022A00F01C
:10485000BC80062A6A4A04BF4FF00109134609EBDF
:104860000002924594BF4FF0000AAAEB020A14F02E
:104870000102009204D1E10640F1AB80D04492469F
:10488000B9F1000F07D04A4619463C687868A0473E
:10489000002840F077814446049B1E44102C59495F
:1048A000D7E9003000F29F802CB122465549984745
:1048B000002840F0678159463B68049A78684E4466
:1048C0009847002840F05E81009B4644002B00F092
:1048D000D48051463846FFF795FD002800F0CD8082
:1048E00050E1602B13D0802B7FF467AF073525F0A4
:1048F0000705F5E80223CDE9002304E02A78002328
:10490000CDE900230435069B43E72A88F7E72B68A7
:10491000002219460435CDE90012F4E7DDE904016F
:104920000A22002306F008FCDDE9040130320BF80E
:10493000012D00230A2206F0FFFBCDE90401DDE989
:1049400004231343EAD10DF13603A3EB0B034BE72A
:10495000DDE900230DF1360BCDE90423EFE702F08A
:10496000070130310BF8011DD10841EA4371D80825
:104970000A46034652EA0301F1D1E4E70DF1360B92
:10498000DDE90023F6E7204B14F4804F0DF1360BE0
:104990001E4908BF1946DDE9002352EA0300D2D0C0
:1049A00002F00F00085C4FEA131C0BF8010D100910
:1049B00040EA037002466346EFE74FF000094B46BA
:1049C0003CE74FF00109124B49E74FF00109114B49
:1049D00045E7514638460393FFF714FD039B002833
:1049E0003FF44EAFCEE010229847002840F0CA8036
:1049F000103C53E7B8D02000A7D02000AAD0200058
:104A0000AFD02000CAD0200096D0200085D0200052
:104A1000ADD02000B5D12000D5F800900435B9F113
:104A2000000F2CD04B469B469BF800200133002AF8
:104A3000F9D1ABEB090BB8F1000F02DBC34528BF7E
:104A4000C346DA4594BF4FF0000AAAEB0B0A14F0F4
:104A5000010406D151463846FFF7D4FC002840F047
:104A600091805A4649463B6878689847002840F04C
:104A700089805E44002C7FF42CAF5644E3E44FF071
:104A8000060BDFF81491D6E7414B424A14F4804FED
:104A900008BF9C460DF1330318BF944600211A4607
:104AA0002868043550EA010E30D1D21A08BF3022EE
:104AB0004FF0780104BF03F8012C03F1FF3303F832
:104AC000011C4FF0300108BF012203F8021C232112
:104AD00002F10309CA4594BF4FF0000AAAEB090A84
:104AE00014F00104A3F1030803F8031C05D1514697
:104AF0003846FFF787FC002844D14A4641463B68C8
:104B00007868984700283DD14E44B3E700F00F0E77
:104B10001CF80EE04FEA111803F801ED4FEA101EE1
:104B20004EEA017E70464146BCE7BAF1010F38BF3C
:104B30004FF0010A2B6814F0010405F104058DF80B
:104B400020300AF1FF3805D141463846FFF75AFCBC
:104B5000C0B9464401223B68786808A9984788B9DB
:104B6000002C8AD04146B5E6079B9C420CD0079B9F
:104B70000799A4EB030842463B68786898470028E9
:104B80003FF473AC4FF0FF3630460FB0BDE8F08F06
:104B900096D0200085D02000B1D0200010B50D4C5B
:104BA000236813B90C4A136010BDFEF783F922681D
:104BB000D2E900310B441B1A92681AB91844064B0B
:104BC0001860F1E7D2E900142144091A8B4228BF8A
:104BD0000B46F1E70843002004430020014800F0A1
:104BE00087BA00BF784000202DE9F84303880546C6
:104BF00053B1592B48D1872921D1002024490B6872
:104C000063B918B10B6001E0214A136059230120F8
:104C10002B80BDE8F88301203346F1E7D3E9026435
:104C20009442F8D000B10B6019460B468968002900
:104C3000ECD0C8689042F8D189689960F4E782297D
:104C4000E4D1134F4FF00009B84600263C68002C11
:104C5000DCD0204606F0A2FE98B122468821E0680A
:104C600000F006FA58B9A368E0602EB1B360C4F84A
:104C70000890FFF793FFE8E7C8F80030F7E7FFF781
:104C8000ADFF2646A468E2E7002303800320C0E7C7
:104C90000843002010B50446FFF7A0FFE3680B4A65
:104CA0000BB1136833B90A4B1B68E36013681460D7
:104CB000A36004E0A34206D1054A1268DA60BDE8A9
:104CC0001040FFF76BBF9B68ECE700BF0843002074
:104CD00090440020024B1868003818BF012070472C
:104CE0000843002010B50B4A04461368834208D1DC
:104CF00083681360FFF752FF0023C4E9023310BD3D
:104D00001346002BF8D09A68A242F9D1A2689A60A3
:104D1000F0E700BF08430020F8B5038805461646B3
:104D2000CBB14A2B2BD188291FD1174806F047FE5B
:104D30000446C4B1231D9E421FD12146124806F0ED
:104D400048FE124E626937683260A2690AB1E069B2
:104D50009047376007E00C4806F031FE044634B94E
:104D600001220B4B1A704A232B8001200AE0A16814
:104D7000201D06F0D5FD2468F1E72468D9E700235B
:104D800003800320F8BD00BF0C43002090440020A6
:104D9000F456002010B50024054B06481C7006F0A0
:104DA0000BFE2146BDE81040034800F089B900BF62
:104DB000F45600200C4300208840002070B50446C3
:104DC000E3610B4B049D1B78C4E905526BB1094D9F
:104DD000094B2E68201D2B6006F0A2FD2E60214697
:104DE000BDE87040054806F007BEA160F7E700BFC8
:104DF000F456002090440020884000200C430020FE
:104E000013B5034C24680094FFF7D8FF02B010BD1F
:104E10009044002070B5094B04461B783BB1084D07
:104E2000084B2E6804302B6006F083FD2E6021466F
:104E3000BDE87040044806F0DFBD00BFF456002016
:104E400090440020884000200C43002070B5094B9E
:104E500004461B783BB1084D084B2E6804302B608C
:104E600006F070FD2E602146BDE87040044806F053
:104E7000C3BD00BFF45600209044002088400020AD
:104E80000C43002010B5084B04461B7843B1043096
:104E9000FFF728FF2146BDE81040044806F099BD01
:104EA000C0E90333F6E700BFF45600200C430020AE
:104EB00038B5836804460D469BB10A480460022059
:104EC000A07304F10C0098470238012801D9832D02
:104ED00005D121462046BDE8384000F005B8012341
:104EE000A37338BD904400202DE9F8431C4F0446BD
:104EF0003D6888462B46A34204D00BB9BDE8F88331
:104F00001B68F8E7002CF9D0164EA37BD6F800906A
:104F100063B10023A3738DB9A3683BB1444505D0A9
:104F20002A468321346004F10C0098473B68A34271
:104F30000ED123683B60C6F80090DFE7A54204D09D
:104F400022468721284606F00FFD2D68E3E7134629
:104F5000002BF0D01A68A242F9D122681A60EAE761
:104F60009444002090440020002238B50125084BCD
:104F70001A70084B1C6804B938BDE37B2BB10022C2
:104F800082212046E581FFF793FF2468F3E700BF05
:104F9000F856002094440020024B1878421C1A70E6
:104FA000704700BFF65600208A22064B1A70002375
:104FB000054A1370054A1370054A1360054A1360C9
:104FC000704700BFF6560020F5560020F756002027
:104FD00094440020904400202DE9F0411A4D2B7894
:104FE0000BB1FFF7C1FF194C267896B10C22184976
:104FF000184F0B78013E5A430133B81803F01F03D2
:10500000BF5C0B702670D0E9018090B9124B1E680E
:1050100026B92B7820781844BDE8F0812B780BB1A5
:10502000FFF7A2FF30464246394606F09DFC36683F
:10503000EEE7812F08BF01234246394608BF83733C
:1050400006F092FCE5E700BFF8560020F756002076
:10505000F55600201043002094440020024A034BE0
:1050600010781B7818447047F7560020F856002037
:10507000F0B50B4E3378202B0FD00C25094C0A4F7E
:1050800024781C4404F01F046C433D19C5E9012039
:105090000020013339553370F0BD0120FCE700BF1B
:1050A000F7560020F55600201043002038B5034C79
:1050B000256806F059FC256038BD00BF90440020EB
:1050C00010B40A4C0A4621680B4683420CD04BB9F7
:1050D00050B1016001212060817310BC8121838166
:1050E000FFF7E4BF1B68F0E710BC70479444002052
:1050F00038B1837B013B012B9FBF0123014AC3735E
:1051000013707047F85600200246084610B506494D
:1051100053600C68029B106093600A600CB9FDF745
:1051200013FF002010BD00BF9844002010B5084CAC
:10513000206858B100232360D0E9013198472368E3
:1051400023B1BDE810401868FDF7FEBE10BD00BFDA
:105150009844002070B505880446672D09D0792D44
:105160002FD0002D33D1FFF717FF1B4B18701B4BAF
:105170001D601B4E194D08E00A282B680ED07E2BAF
:1051800003DC5A1C2A60174AD054304606F0C2FC91
:10519000431CF1D16723238001201BE05A1C2A60A5
:1051A0000025104A2846D5540B4B1978FFF760FFAD
:1051B0000D4B2A4685211868FFF75AFF18B9792345
:1051C000E9E78529E8D10022044B1A60D1E70023E2
:1051D0000380032070BD00BF776900209C4400203D
:1051E000A0440020F9560020904400200D280146DC
:1051F00010B516D00C4C237853B90C4806F077FC48
:1052000008B9012323700A48FFF772FF012010BD7F
:105210000A28F8D1054806F06AFC0028F3D00023DC
:10522000F0E70020F3E700BF79570020A0440020FA
:105230009840002008B505490548802206F050FC3A
:10524000BDE8084000210348FFF73ABF7A57002025
:10525000A0440020984000202DE9F0410488054634
:10526000772C20D07E2C3DD0002C4ED1FFF794FE21
:10527000284E294B294FDFF8B0801870346033680E
:1052800057F823202AB9264A137077232B80012050
:105290003EE008F803409368002180209847336877
:1052A00001333360EBE700231E4A1360194A136091
:1052B000184B1B4A1B6812789A4204DC194B1B6876
:1052C000002BF0D1E1E7184AD256002A19DA134A26
:1052D000002052F82320104B1978FFF7C9FE28B997
:1052E0007E23D3E70C4B1B788B42D0D1094B0E4960
:1052F0001A688B5C03F07F038B540A4A13680133EE
:105300001360044A13680133D1E7002303800320AC
:10531000BDE8F081AC4400207869002040400020C6
:10532000FA570020A84400207369002010B40A4BEB
:105330000A4A197800238B4203DA52F8044BA04240
:1053400008D107490748CA5C62F07F02CA5410BC02
:10535000FFF7CEBE0133EEE7FA57002040400020B1
:1053600073690020A8400020064A136843F0040334
:105370001360054B186804331B6840EA032080B2B1
:10538000704700BF00700D4014700D4010B5174AF3
:10539000136823F00C0313600122154B1A601A687E
:1053A000012AFCD10822134B13491A60E32203F5AA
:1053B00005731A601A460B68DB07FCD50F4C1021E9
:1053C00000232068013900F0010043EA00034FEA9E
:1053D00043039BB2F5D1002BF1D00949180A03F021
:1053E000FE0308600B60EF23136010BD00700D40DA
:1053F000A8200D4024860840648608409C8608400A
:1054000014700D402DE9FF476F46224D224E05F1E5
:1054100008030FCB87E80F00337895F80780BBB1FE
:105420003A221E49AA710A88D21A92B20A80A2F1BF
:1054300028010812287103F128002844C3F104034D
:1054400069712C3A011D184406F098F80023337056
:10545000134806F0B4FA0446DFF840A02CB90F4B0D
:1054600034701C8004B0BDE8F087D4F80490B9F122
:10547000000F09D0BAF8003032782C3B3832414660
:1054800038469BB22A44C847204606F0D0FA044664
:10549000E4E700BF685F002022580020545F00202E
:1054A000B0440020F8B52C4B2C4C1B7904F11806A5
:1054B000E371237E04F10805FF2B31D195E80F003D
:1054C00086E80F003146284600F0BEFA244D2B78BE
:1054D000BBB13A222349A2710A8803F12800D21AEB
:1054E00092B20A80C3F10403A2F1280120440E12F3
:1054F00061712C3A011D1844267106F03FF8002313
:105500002B7081212B782833E218E152002353803D
:1055100006F08BFBC0432B78134A13445880F8BD28
:105520002F46124A3B4603CBB342106051601F46E0
:1055300002F10802F6D196E80F0085E80F000B4B48
:105540000B4D03F110062A4618685968083303C248
:10555000B3421546F7D1B9E7E85D0020685F002047
:1055600022580020545F0020905F0020105000203F
:10557000805F002038B504460B480D4606F01FFA40
:1055800008B901200FE00379A34204D143799D4279
:1055900004D0FF2B02D006F04AFAF1E78368002B13
:1055A000EFD09847002038BDB444002001460148A0
:1055B00006F022BAB44400202DE9F74F474D81464A
:1055C0002B788846934653B1454A9B5C3A2B0ED1C3
:1055D0000023444A2B70138003B0BDE8F08F424B88
:1055E0009A793A2A03D193F92830002BF0DA3F4C0C
:1055F00003F0FAFA04F110063746A2463C4A234665
:1056000003CBB342106051601C4602F10802F6D190
:10561000344E354C3388214630339BB2B3F5A06FFE
:1056200088BF4FF4A063338032882B78D21A04EB02
:105630004300303A3030019305F0A0FF6022019B17
:1056400022603A22002B47D084F82820294B628917
:105650001B79E37123891343A2891343E28913431E
:10566000228A1343628A1343A28A1343E28A1343B2
:105670009BB2002BACD0204B0FCB8AE80F001C4B09
:105680001B78FF2B05D1B9F1040FA1D1B8F1020F9E
:105690009ED11749184800F0D7F995F800A0584650
:1056A0000AF12803E21804F8039082F8018001F05F
:1056B0004DFC124B43F80A003388283B1A12227122
:1056C000002263712B783B445A8006F0AEFAC04347
:1056D0002B781F4478807FE7A271B7E7225800201B
:1056E000905F0020545F0020685F0020805F0020F2
:1056F00010500020E85D0020705F0020945F0020C3
:105700002DE9F0411E4660231A4D0F462B603A23C7
:105710000446AB71184B90461B7900F1100CEB71ED
:10572000331D1A122A716B7105F118021346206895
:105730006168083403C364451A46F7D10F49104C19
:10574000A1F1100000F080F923782C362833EA18F4
:10575000EF54002382F80180538006F066FAC043BC
:105760002378084A13445880074B1E80BDE8F04157
:1057700002F024BD685F0020E85D0020805F00200B
:1057800022580020905F0020545F002008B5044894
:10579000FFF70CFFBDE808400248FFF707BF00BF56
:1057A000C4400020B84000202DE9F341144D0446C8
:1057B000CDE900150E4690461F46202203460321E0
:1057C000104806F0B7F9012818D12B6804F110022F
:1057D000187020462B68023350F8041B904243F89F
:1057E000041BF9D12868089B86744361099B80F8E3
:1057F00013800777836102B0BDE8F0810020FAE7EB
:10580000C0440020E45E0020F8B507460B4E0C4D66
:105810002E6060362C68B44201D30020F8BD237896
:1058200033B1A27C3946D208A01C05F001FE10B1AC
:1058300020342C60EEE70120F0E700BFE45E00209A
:10584000C0440020802213B5074C03460092032178
:1058500020220648019406F06DF910B9206802B0C4
:1058600010BD0020FBE700BFB8440020005E002010
:1058700030B5044648F2FE050A490B4A1160603112
:105880001068884201D3002030BD03783BB1631C0F
:1058900002D0837CA34202D14388AB42F4D02030B3
:1058A0001060EDE7005E0020B8440020802337B58B
:1058B0000F4D122200930446034605210D48019521
:1058C00006F038F901282A460FD12B6818702346B4
:1058D000296804F11000023153F8044B834241F867
:1058E000044BF9D1106803B030BD0020FBE700BFC6
:1058F000BC440020845E00208023F7B5214C009337
:10590000054603460E461746032120221E480194F1
:1059100006F010F9012832D12A46236805F110015A
:1059200018702368023352F8040B8A4243F8040BC0
:10593000F9D12068C774DEB90123037501222368F9
:1059400012489A7440F2FF2303800023438083802F
:10595000C38003814FF480734381FF2303736B7B08
:105960004373EB89C381FFF7A1FF206803B0F0BD4B
:10597000002331460375183005F0B1FFDEE7002043
:10598000F4E700BFB8440020005E00202050002053
:10599000802213B5074C03460092052112220648C7
:1059A000019406F0C7F810B9206802B010BD0020BD
:1059B000FBE700BFBC440020845E002038B50546EC
:1059C000C8B140F2FF230C48002403804FF48073D9
:1059D0004381FF2344808480C48004810373EB7B74
:1059E00043732B8AC381FFF7D3FF044A106008B1C9
:1059F00006F0C4F82C7038BD20500020BC440020B4
:105A000038B50E4D0E4C256060352068A84206D38F
:105A100000F0FEFABDE838400A4805F08ABF037876
:105A200043B1037D33B9183005F060FF10B1206831
:105A3000FFF7C4FF236820332360E6E7005E002001
:105A4000B8440020445F00202DE9F84F48F2FE03DF
:105A50000A8805469A4288462BD00A78FF2A28D021
:105A600000249B46A2461A4A1A4F02F160093A6086
:105A70003E684E450AD30CBB2C806C80AC80EC8019
:105A80002C816C81AC81EC81BDE8F88F33786BB1EF
:105A9000B37C012B0AD173885B4507D04046B11C0B
:105AA00006F079F882459CBF3446824620363E6037
:105AB000DEE70120FFF7DCFE0446DCE7A31C12341E
:105AC00053F8042BA34245F8042BF9D1DCE700BFBF
:105AD000005E0020B844002070B5094EB06845084B
:105AE000FFF742FC0446FFF73FFC2402B268A4B271
:105AF0002044B0FBF2F302FB1300284470BD00BF4A
:105B0000E85D002073B5304C01F03EFA00F096F8E5
:105B1000602200212D4805F097FD00212046F42247
:105B200005F092FD20222A4B40261A701822294B9C
:105B300000251A704FF4A06344F8043C264B04F887
:105B40000469A360FFF7C8FF42F21073236148F2B3
:105B5000FE03E0602575214C2A46238031462B4602
:105B60006580A580E5802046CDE90055FFF71CFE45
:105B700020461B4906F006F829460122FFF7BCFE25
:105B800040F2FF264FF480732046E3812680658033
:105B9000A580E58025816581A581FFF787FE4FF40B
:105BA0000073204626806580A580E580258165817B
:105BB000A581E381FFF77AFE0C210A4802B0BDE817
:105BC000704005F0ADBE00BFEC5D0020E45E00203B
:105BD000E15E0020E05E0020C02709002050002088
:105BE000605F0020445F00202DE9F0470546104823
:105BF0000F46904605F0E3FE0446DFF83890DFF8E4
:105C000038A00CB9BDE8F087012D0DDC504605F039
:105C100007FF03464246394628466668B047204695
:105C200005F005FF0446ECE7D9F80030F2E700BFC5
:105C3000084600200C4600204445002008B50B48CB
:105C400005F0F8FE0A4805F0B7FE0A4B0A49186845
:105C500004F038F8094805F0EDFE094805F0ACFEFF
:105C6000BDE80840074805F0A7BE00BFFC40002083
:105C700010460020DC400020D5BB2000D040002092
:105C8000444500200846002008B540B1044B416857
:105C9000186806F083FEBDE8084005F0CFBF08BDD8
:105CA000DC400020014805F08ABE00BF10460020FD
:105CB00008B505F0C5FF014630B1044B186806F081
:105CC0005AFE003818BF012008BD00BFDC4000208C
:105CD0002DE9F04180460027FFF7E4FF3D460446EA
:105CE00084B965B1124805F06AFE854207D029469D
:105CF0000F4805F06EFE29460D4805F08AFE28463D
:105D0000BDE8F08194F82460BE420AD34046F20810
:105D100004F1080105F08CFB18B9802E06D0374637
:105D20002546204605F052FF0446D9E72546D9E727
:105D30001046002038B5044600283FD04368002BA9
:105D40003CD001461E4805F044FE6368586805F0E3
:105D500036FE054668B343689C4226D163682946EF
:105D6000586805F036FE6368586805F028FE28B9C3
:105D700063685968134B186804F050F821461248BC
:105D800005F07CFE2946114805F078FE104A2046B1
:105D90001368013B1360FFF777FF04F10801024627
:105DA000BDE838400320FFF71FBF284605F03FFE3F
:105DB000CFE704F1080002F067F9CFE738BD00BF74
:105DC00010460020DC400020FC400020F040002075
:105DD0000C46002010B5044680B1406870B105F053
:105DE000EEFD30B9064B2146BDE81040186804F0BE
:105DF00015B84068FFF79EFF6068F0E710BD00BF70
:105E0000DC4000202DE9F84F074610468A469046B0
:105E100005F016FF064618B900252846BDE8F88F9C
:105E20003846FFF755FF054660B1FFF72DFF0146E5
:105E300028B11022404605F0FBFA0028EDD0284694
:105E4000FFF778FF2C4B1A689B46102AE4D02B4DA5
:105E50003146286806F08FFDA946044668B9034616
:105E600004223146286803F05DFF04460028D3D0A1
:105E700000234060036005F09FFD214805F0EAFD26
:105E800006460028C8D001461E4805F0C2FD1E483F
:105E900005F0E0FD054620B93146194805F0EEFD54
:105EA000BBE746600146606805F0A6FDDBF8003000
:105EB000214601337460D9F80000CBF8003003F0BC
:105EC000C3FF3B4606F1080407F110052246186897
:105ED0005968083303C2AB421446F7D10023424647
:105EE0003946022086F824A0B361F3613362FFF7DC
:105EF0007BFE354691E700BF0C460020DC400020C9
:105F0000FC40002010460020F040002038B5054637
:105F10000D4805F054FD044600B938BDAC420ED121
:105F20002146094805F055FD2146084805F0A6FD23
:105F3000221D1146BDE838400120FFF755BE20461E
:105F400005F075FDE7E700BF44450020D040002084
:105F500038B50546084805F032FD044608B9204624
:105F600038BD10222946201D05F062FA0028F6D01F
:105F7000204605F05CFDF0E744450020F8B50546F5
:105F80000E46FFF7E5FF044640B9134805F062FDF1
:105F90000446E0B10146114805F03BFD2B46271DA4
:105FA00005F1100C3A4618685968083303C2634576
:105FB0001746F7D16EB1314604F1140005F08FFC9D
:105FC00000232A46294600202377FFF70DFE2046AE
:105FD000F8BD0123F5E700BFD04000204445002074
:105FE00038B50A4805F0EBFC002504460CB92846F4
:105FF00038BD251D284600F0FBFF10B1437C002B67
:10600000F5D1204605F013FD0446EFE74445002096
:1060100038B50D4805F0D3FC04460B4D04B938BD26
:10602000237F63B904F1140005F060FC38B1204609
:10603000FFF76CFF284605F0C2FC0446EEE7204659
:1060400005F0F5FCF9E700BF4445002037B5124BD9
:10605000124D1C782B7905F10801C4EB03226B79F2
:1060600013449BB2ADF80630BDF806302022184428
:1060700080B205F0B1FDBDF8062004F1280192B20E
:10608000294405F0A9FD18B140BA80B203B030BD73
:106090004FF6FF70FAE700BF22580020685F00202B
:1060A00002200021F8B5294F294D3A78294C283291
:1060B00053195E782070F6000736864202DA19B36B
:1060C000207021E0131805EB030CEB5C012B06D0CC
:1060D000632B09D0D3B901300121C0B2EDE7831C95
:1060E0009CF801001844F7E701B1207002F0FEFCB3
:1060F00008B90120F8BD22783B78174913440B44B6
:106100005B7802321A4422700020F3E703F0C003E8
:10611000802B07D0C02B0ED0402B12D10029E8D005
:106120002070E6E701B12070024402210420FFF74D
:1061300043FA0220DEE701B120702B7EFF2BF3D162
:10614000D7E79CF801300230CCE700BF225800208E
:10615000685F002023580020905F002070B5C5784C
:10616000124B0D44EDB2DD70827802EB1122D2B2F7
:106170009A704478B2EB112F5C7006781E7005D2CD
:10618000601CC0B2587008B901361E70C9B28D4289
:106190000BDA0132D2B29A703AB95A780132D2B2DD
:1061A0005A7012B91A7801321A7070BD5C5F002003
:1061B00010B5084C014620681430FFF7CFFF064A9F
:1061C000236811781975517859759178D278997535
:1061D000DA7510BD8C6400205C5F002008B5FFF705
:1061E00091FCFFF7D3FA05F034FD002319460F4A5E
:1061F000138053809380D380138153819381D38103
:106200000B4A01330A2B82F8251002F13002F8D133
:106210004FF48062074B1A8000231946064A013367
:106220000A2B118202F12002F9D108BD7866002004
:1062300090640020305000208C660020F8B5104E8D
:10624000357845B10F4F05F127033C88A34203DBA6
:1062500000233B803370F8BD0B4BA4F12802184695
:10626000521B591905F08AF9641BA4B23C80283CE2
:106270002212002300F8242C00F8234CEAE700BF88
:1062800022580020545F0020905F0020074A00231E
:10629000114610B532F8024B844203D1002221F896
:1062A000132010BD0133082BF4D1FAE778660020E3
:1062B00004282DE9F74FAD4E00F02081AC4FAD49D9
:1062C000AD4DAE4A0328BA4689463C680D6015605C
:1062D0005ED194F8253003F00F03032B14D1A38B68
:1062E000002B40F082800822A54B1A7002F09AF829
:1062F000A34B1A78A34B12F0200100F095850022E1
:106300001A8084F8252096E0022B6ED1002305F830
:10631000073C9D4B93F8352042F0020283F835206C
:106320009A4ADA6340223280602283F83420237D47
:10633000954D85F83030637D05F1180785F83130CB
:10634000A37D85F83230E37D85F83330237E85F8F0
:106350002C30637E85F82D30A37E85F82E30E37EC9
:1063600085F82F30238A2B85638A6B8594E80F008C
:1063700087E80F00394605F10800FFF765FB94F840
:106380002530DB064CBF00234FF48043EB863FE310
:10639000022840F09F8000237D4A33801370794AA1
:1063A00013807C4AD3780133DBB2D37063B993781E
:1063B0000133DBB293703BB953780133DBB25370D6
:1063C00013B913780133137094F8253003F0FD02EC
:1063D000052A13D194F826300133DBB2782B84F8E8
:1063E000263002D1002384F825300023684A338008
:1063F0001370694A1370624A13705CE1002BF4D089
:10640000A28B5F49002A5ED094F82620501E84F8A3
:106410002600002AE9D194F82720082A04D0581E23
:1064200001280CD8052A0AD1002384F825308023BE
:106430000B7001F0F7FF1422534B00F0BCBC042A90
:1064400015464FF0030028BF042503F00F03A840B2
:106450000132013B84F8260084F82720072BC4D89A
:1064600001A252F823F000BFF96A200089642000DD
:1064700093642000B36D2000EB632000B36D200017
:10648000EB632000B36D200000223F4B83F83520E2
:106490003FE704230B7001F0C5FF384B1B68C9F8B8
:1064A0000030384B1B88002B00F0DE84A38B002BC0
:1064B00000F0DA8418223C333380334B83F83520E4
:1064C0005022314B31E703F00F03032B8DD108230A
:1064D0000B700BE7052863D1304B1B681B8A002B20
:1064E00083D000230C3D1560264A3B6013800822B0
:1064F0003380234B0D601A7001F094FF214B1A88F2
:10650000002A3FF472AF02F130031F4C9BB233807C
:10651000283B19126371214B08321B6852BA217152
:10652000197DA2850022E1711121E2851A8AA171EB
:1065300022855A8A04F1180562850FCB85E80F0081
:10654000294604F10800FFF77FFA0A4B04F13C02E8
:106550001A6005F070FBC04380B2002800F0FB8198
:10656000E0856022084B1A60A2E000BF545F002063
:106570008C64002088640020A45F0020585F002005
:106580007C64002088660020685F002002040040D0
:10659000225800201D58002021580020846400202B
:1065A00015F83C3C3C3D03F0F003602B7FF41DAF3D
:1065B0002A796B793088110203EB022282423FF77D
:1065C00014AF28330B4433802B7AFF2B3FF40DAFED
:1065D000BD4BAA1D1A600022BC4FBD4C3A70227000
:1065E000AA799846A2B901232370FFF759FD012823
:1065F0003FF4FBAE02285BD050B93B7803F1280290
:106600002A44C8F800205278083303EBC2033B70D9
:10661000B048FFF717F9002840F02A81AD48FFF78E
:10662000B7F9002840F02481297E2B89FF2945D025
:1066300048F2FE002A8B824240D0834243D06989CF
:106640000B43A9890B43E9890B43298A0B43698AC8
:106650000B43A98A0B43E98A0B439BB2002B3FF4FF
:10666000C4AE6B8B1343AA8B1343EA8B13432A8C60
:1066700013436A8C1343AA8C13439BB223B9EB8C4C
:10668000B3F5807F3FF4B1AE3388B3F5A06F06D980
:106690004FF4A06200210220FEF78EFF08E0EB79A4
:1066A000012B03D8002203201146F5E7013BEB71D3
:1066B0000022894B1A7003B0BDE8F08F48F2FE0249
:1066C00093427FF492AE6A8B2B8B1343AA8B1343B6
:1066D000EA8B13432A8C13436A8C1343AA8C13430B
:1066E0009BB223B9EB8CB3F5807F3FF47EAEFF29DC
:1066F0003FF47BAE7748FFF787F8024600287FF427
:1067000074AE02210120C7E7BBF12B0F40F0C68019
:10671000237813F0040140F0C1803A7843F0040379
:10672000237002F128032B44D878002800F0C4809D
:106730002A320420B0E7BBF13B0F3FF456AEBBF169
:106740003C0F00F0AE80BBF13A0F40F0A78005F09F
:106750006CFA4FF6FF7398427FF447AE3B785F4A7E
:10676000D05C01F005FD3B782833EA185178E85CED
:10677000FEF700FF01283FF438AE3388002B97D195
:1067800033E6FFF75BFD85F806B005F051FA4FF6EA
:10679000FF7398427FF429AEB5F82AB0BBF1000F21
:1067A0003FF423AE2B8D002B3FF41FAE4FF00A08B1
:1067B0004B4C94F825200092002A00F0D080228AC9
:1067C0005A4540F0CC80628A9A4240F0C88010223C
:1067D00021464448019304F02BFE019B0246002809
:1067E00040F0BD8095F835103B4B11F0040F9846F2
:1067F000CAF80040187000F08681202284F8250035
:106800001A7001F00FFEF0E5FFF718FDEB8D85F82B
:1068100006B0002B6CD16F8D002F3FF4E6AD324BEC
:10682000324CDFF8C0B0B5F82880236003F5A075BE
:106830002168A94264D30022042163E72378D907A1
:106840002CD443F001032370FFF72AFC01283FF406
:10685000CCAD02283FF42CAF50B93B7803F12802AD
:106860002A44C8F800205278083303EBC2033B7077
:10687000D8F8002092F800B0BBF12C0F3FF4B5AD72
:106880003FF659AFBBF1110FBED03FF63DAFBBF1A4
:10689000000FD3D0BBF1060F3FF473AF0121521BA1
:1068A00047E72378980704D55906F7D443F0400307
:1068B000C9E743F00203C6E7C8F800305B78083246
:1068C00002EBC3023A70D3E7806400202258002014
:1068D00021580020805F00207C640020905F002011
:1068E00090640020705F00208C660020846400208B
:1068F00005F0A1F94FF6FF7398427FF476AD8AE771
:106900000B8A2BB39F4223D14B8A0BB143451FD136
:106910000B682BB94B681BB98B680BB9CB6833B1CB
:1069200010225846009104F083FD009980B902209E
:1069300033888C49303B338000238B4A08708B4965
:10694000C9F800200A608A4ACAF800301380D3E5EB
:10695000203121606CE74FF6FF73E38501E6B8F163
:10696000010804F130047FF424AF95F8352002F0DB
:106970003F02022A09D17F4A32F8021B8B4559D0C7
:1069800008F10108B8F1080FF6D195F835305C0729
:106990003FF52BAD3C23338041F2504395F8310055
:1069A00095F82F10AB866B8E95F82E2095F8304019
:1069B000EB85013195F82D3085F82D0095F82C00E8
:1069C000C9B285F8322085F8313085F82C4085F839
:1069D000300085F8331061B90132D2B285F8322027
:1069E0003AB90133DBB285F8313013B9013085F89B
:1069F00030002B8D6A8D604C2A856B85A4F11005C3
:106A000095E80F0084E80F0021462846FFF71CF8A0
:106A100006235A4CA3715A4B1B79E3713388283BE8
:106A20001A12637100232271A36305F001F9C043B8
:106A3000208796E500242146524A92F82500002836
:106A400034D130244F4A04FB012463824E4BA4F816
:106A500010B00FCB84E80F004FF4806301206384F3
:106A60004A4BA08363624A4BCAF800401A782276E8
:106A70005A7862769A78DB78A276E376EB6A63617D
:106A8000FFF796FB95F8343003F0F002502A33D923
:106A900000221B09053B9B00A91891F83C705FB3CD
:106AA000012F18D101329342F6DC25E0072807D1E7
:106AB0007CB192F8267094F82600874288BF14466D
:106AC00001310A2902F13002B7D1002C3FF48DAC1C
:106AD000BBE71446F4E7022F91F83D000FD10428DC
:106AE0000DD191F83E2091F83F3043EA0223402B2C
:106AF00028BF4023E38323841022204BC6E40028D0
:106B0000FAD00244CFE7338895F83400283B0009D7
:106B1000A3EB800300989BB200F00F0CBCF1020FB6
:106B2000338017D101F03F00122833D00BB988070A
:106B300030D0E86A636998422CD08A0706D5BCF148
:106B4000010FD9D0BCF1020F3FF4E3AB102385F85D
:106B5000353032E1BCF1010FE8D101F03F000228ED
:106B6000E3E700BF7C640020985F0020585F0020AE
:106B70008866002078660020805F0020685F002023
:106B8000E85D002090640020705F00200301030096
:106B90001D580020CB0654D5A18B002951D004F1FB
:106BA00018000092FFF7DAFABB4B95F830C019785D
:106BB000009A8C4545D1597895F83100884240D1EA
:106BC00093F802E095F8321071453AD193F803E05A
:106BD00095F83330734534D1E37694F8273084F850
:106BE00018C06076A1761BBB94F8261094F824B0E8
:106BF00094F822E0ABEB0103A3EBDE0358B20028CC
:106C00004FEADE0CBEBFACEB0B0C614448B294F80B
:106C100023107344A1EB9101084403F0FF03C0B2B9
:106C200084F8223000EBD30384F8230084F8243066
:106C300001219A4B197094F8243084F826300023EF
:106C4000A38394F82510DFF854B201F00F03013B41
:106C5000072B3FF6CAAB01A050F823F07D6C200053
:106C6000BD6C2000676D2000AD6E20000D6F200010
:106C70002F6F20004D6B20007F6E20009BF80030AE
:106C8000D80713D5032384F8253040238BF8003030
:106C900000233088A38320B142238BF80030FFF714
:106CA00087FA00227E4B1A80FFF720BB95F835301B
:106CB00003F03F03022B7FF498AB1DE79BF80030F5
:106CC000D90745D595F8353003F03F03122B3FD156
:106CD00095F8343003F0F001502921D91B09053B08
:106CE0009B00A91891F83CC0BCF1000F18D0BCF172
:106CF000010F03D101329A42F3DB11E0BCF1020F24
:106D000091F83D0020D104281ED191F83E2091F841
:106D10003F3043EA0223402B28BF4023E3832384F0
:106D2000032384F82530EB6A01206361FFF740FA02
:106D3000422388F8003000235A4AA3831380584A1C
:106D40003B701380FFF7D2BA0028E9D00244D2E7A3
:106D500020238BF8003001F065FB0022DAF80030C8
:106D600083F8252011E695F83530DA0729D5CF06C6
:106D700027D4A38B002B7FF438AB4A4D28880130F1
:106D800080B2FFF715FA9BF8003043F010028BF841
:106D900000202A881AB143F012038BF8003001F06A
:106DA00041FB0123A383082384F82530002384F8C2
:106DB000273011223C4B83F835203C233380FFF7EA
:106DC0007FBB980610D56B8FD9F800205BBA95F879
:106DD0003AC095F83B709BB230881344C9F8003034
:106DE00047EA0C23C31A3380308848B1CA0607D457
:106DF0009BF8003043F002038BF80030FFF7D8F91E
:106E000095F8362095F8373003EB0223228C9BB29D
:106E10009A4202D3002B18BF1A469BF80030E28337
:106E20009B073FF4E2AA3CE712F0100008D019805B
:106E30000123A383042384F8271084F82530B8E7BE
:106E4000198851B1D70748BFA083A28B52B9E28BF2
:106E5000914288BF1A801B88A383002384F82730BF
:106E6000FFF71BBB1A80F8E70C4B1B789D077FF5DB
:106E7000BCAA3C23102233800B4BFFF71FBB9BF8AF
:106E80000030D8077FF5B1AA002384F825301023FD
:106E90008BF80030B5E400BF5C5F00207C6400200C
:106EA00088660020545F0020685F0020308808B1A9
:106EB000FFF77EF995F835309BF8002013F00103B9
:106EC00002F0010214D07AB1072384F825300023A0
:106ED00084F82630A3830120FFF76AF910238BF88A
:106EE000003001F09FFA31E6062384F82530F2E7FE
:106EF0002AB10522A38384F82520FFF776BA124B26
:106F00001B88002B7FF422AEFFF76FBA308808B1E0
:106F1000FFF74EF995F83530D90706D5072384F8E1
:106F20002530002384F82630D5E73388E9E79BF83D
:106F30000030DA077FF559AA072384F825300023AB
:106F400084F82630FFF751BA545F0020054BC0F398
:106F5000072203EA0023000C40BA134380B240EA40
:106F60000340704700FFFF0010B5044640B101F038
:106F7000FFFE044B2146BDE81040186802F04EBFEA
:106F800010BD00BF0841002008B503F029F9034BEC
:106F900003491868BDE8084002F094BE084100208B
:106FA000696F200070B504460C481E469DF81020FD
:106FB000059B006802F0B6FE054668B1224603460E
:106FC00004F1100152F8040B8A4243F8040BF9D182
:106FD00028466E7401F0CCFE284670BD08410020A2
:106FE000024B0146186805F0D9BC00BF08410020DB
:106FF00070B50C4E0546306802F078FE044675B94F
:107000000024204670BD10222946204604F010FAC4
:107010000028F6D02146306805F092FC0446002C8A
:10702000F1D1EDE708410020024B0146186805F058
:10703000A2BC00BF0841002070B5054610200E46D6
:1070400003F022F80849044605F0B5FC58B9324669
:107050002946204603F062F8324629462046BDE81C
:10706000704001F067BE70BD5DD12000B8230B49B0
:10707000024603FB0013002030B501460446588247
:10708000074B9D7825B11D78954204BF9C70013057
:1070900001310C2903F17103F3D130BD9C4800206C
:1070A0002E58002008B5064801F05CF80122054B77
:1070B000FD211A70002299705A70DA7008BD00BF65
:1070C000F17220002458002030B513780446087A65
:1070D00083F0020398421FD1487A537898421BD11B
:1070E000887A9378984217D1C87AD378984213D186
:1070F000087B137998420FD1487B537998420BD182
:10710000887B9379984207D1C87BD379984203D181
:107110000320A040C0B230BD0E4B08891D461A683E
:1071200060B94889B0F57F4F08D18889FE2805D11C
:10713000C989022022F8021B1A60EAE701F108035C
:1071400003CB083242F8080C42F8041C01202A60E4
:10715000DFE700BF0C4A002010B50E4C0220A179D9
:1071600002F078FFA379112B09D1218D638D99420B
:1071700028BF1946BDE81040012002F06BBF062B66
:10718000F3D03A2B03D1218D49BA89B2F2E700211D
:10719000F0E700BF685F002010B5084C0146237877
:1071A000012B08D10822A01C04F042F900280CBFD2
:1071B0002046002010BD0020FCE700BF245800201E
:1071C00008B50146102002F053FF044B00219B68D4
:1071D00003489847BDE80840FCF71EB89CCE200045
:1071E000E571200010B50C4611462046FFF724FF3C
:1071F000044B1B6813B120469B689847024B1C60E8
:1072000010BD00BF94480020144A0020164A2DE902
:10721000F0410023054616469078E0B971245C439E
:107220003719797002F03EFEDFF844800F4B98F872
:1072300000103555401A1D68B8700D4402F032FE3A
:1072400098F800200334821A2946301904F020F9F6
:10725000B878BDE8F08101330C2B02F17102DBD16B
:107260004FF0FF30F5E700BF2E5800201C4A0020E9
:107270007A5D00202DE9F04117090F2F08BF102774
:1072800002F00F040F2C80461D4608BF102417B1D2
:107290003A4604F0FDF83A190F2A06DC0021C2F143
:1072A000100208EB070004F0CFF9B4B10F4DC4F1A0
:1072B00010002E6822463146404404F0E9F8022CC2
:1072C00007D10A2F9FBFFF2388F80B30FE2388F8D1
:1072D0000C3034442C60BDE8F081002FFBD02946EF
:1072E0004046BDE8F04104F04DBC00BF0C4A002010
:1072F00000232DE9F04FBF4EBF4D87B033702B7088
:10730000044602F04DFE02F0DFFDBC4ABC4B1268A1
:10731000CDE9016318600AB1FFF71EFF002C40F0B1
:107320002881B84904A805F041FB029B95F800B0FC
:107330001E68B54BDFF8D8A21B883E2B40F257825F
:10734000B24FB31C3B6000230BF1020906F8093071
:107350000AF11800FFF720FF28B90AF10800FFF72B
:107360001BFF044610B18024F31C3B609AF801C057
:107370009AF800004FEA1C1343EA0013DAB2C3F391
:10738000850343EA821300F00F002CF00F021CF07B
:107390000F0F5FB29D49DBB240EA020040F0EB8084
:1073A000BAF80220002A40F0E680002800F0FD80B4
:1073B00070270A6802F8013B0A60954B98791128FA
:1073C00016BF0A6847F0040702F8010BDB7918BF03
:1073D0000A60402B00F0EB80FF2B00F0EB80012BCC
:1073E00040F0EB8047F00107BAF80830BAF80A20FD
:1073F000BAF80C101A430A43BAF80E10DFF80C82E0
:107400000A43BAF810100A43BAF812100A43BAF83D
:1074100014100A43BAF816100A4392B2002A40F038
:10742000D18044F04004DFF8E8A19AF81830FF2B2F
:1074300040F074819AF81900BAF81A100228D8F8A6
:10744000003044F0080240F01881002940F05181DA
:10745000BAF81EC0BAF81C1041EA0C01BAF820C0F4
:1074600041EA0C01BAF822C041EA0C01BAF824C082
:1074700041EA0C0189B2002940F001819AF82610F6
:10748000002940F0FC809AF8272044F00B0403F810
:10749000012BC8F800302823019A13705C4A9379B5
:1074A000112B35D14FF2B009B2F828C0B2F82AE05A
:1074B0004FEA1C2040EA0C2080B24FEA1E2C4CEA16
:1074C0000E2C524920F00F0ECE450B681FFA8CFC93
:1074D0001FFA8EF840F068812CF00F0EC64540F080
:1074E0006381F3201870108D02334FEA102C508DF9
:1074F000000A00EB0C1000F5AA6003F8010C0B6009
:107500000B68D28D23F8022B0B603023019A137085
:107510003E4B06F80B701B68B3449E1B8BF8014072
:107520002E700DF1100A5146102002F0A1FD394BCA
:10753000354F1B689847041EB8BF1524019A3B8835
:10754000167895F80090C4F17D089A1BA8EB090104
:107550008A4240F32382C4F1780493FBF4F602F0EC
:10756000DBFA01388642C0F25D81002007B0BDE839
:10757000F08F2146D6E60A68DFF894E068B927F074
:107580003F0747EA0C0C82F800C0BEF80230033215
:1075900022F8023C68270A600FE7DEF80000602747
:1075A000106002F8043B0A6007E7782705E747F018
:1075B000020719E747F0030716E70A6802F8013BDC
:1075C0000A6011E714480393FFF7E6FD134A039B93
:1075D000106038B3427816F80930042043EA0213E9
:1075E0000D490F4A06F80930FFF76EFD60F03F04C1
:1075F000E4B218E77B5D00207A5D0020944800200B
:107600001C4A00205DD12000545F00200C4A00205D
:10761000685F002054CE2000705F00209848002052
:10762000605F002048F2FE02934210D1BAF81C209D
:10763000BAF81A301343BAF81E2013439BB233B979
:107640000420CC4ACC49FFF73FFD0443D0E7D8F8EB
:107650000020DFF824E394460EF1100A734603CBB2
:107660005345CCF80000CCF804109E460CF1080CF1
:10767000F4D11032C8F80020D5E6002939D1BF492D
:10768000B1F81EE0B1F81CC04CEA0E0CB1F820E0D5
:107690004CEA0E0CB1F822E01FFA8CFC5CEA0E0EEC
:1076A0008E4613D191F824C0BCF1000F11D11A46B7
:1076B00002F8010B31F8250F44F00A04A3F8010089
:1076C000897804339170AE4A1360E4E6BCF1000F90
:1076D0000FD19EF8221061B91A46AA4902F8010B8F
:1076E000086844F00904C3F80100097906331171F0
:1076F000E9E79C46DFF898E20EF11008744603CCE7
:107700004445CCF80000CCF80410A6460CF1080C57
:10771000F4D19B49103314460B60BCE60AF1180003
:10772000FFF73AFD984A106080B116F809204378B7
:107730000AF118011343002006F8093004AAFFF7E4
:10774000C3FC0443E4B244F00404A4E648F2FE039C
:10775000BAF818209A4211D1BAF81C20BAF81A3097
:107760001343BAF81E2013439BB23BB904AA0AF193
:107770001801FFF7A9FC0443E4B28CE6D8F8002016
:10778000DFF80CE294460EF11008734603CB434534
:10779000CCF80000CCF804109E460CF1080CF4D193
:1077A000774B10321A6076E60CF47F4CBCF5704FC4
:1077B00009D1F1201870108DA3F80100508D000A36
:1077C000D87004339BE600F47F40B0F5704F07D1CA
:1077D000F2201870108D000A5870508D5880F0E714
:1077E000F0201870906A053343F8040C87E64123B3
:1077F00033700BF10103DBB21E440AF12802534639
:1078000003CB9342306071609A4606F10806F6D1C8
:10781000019B019A1B780BF1290B283385F800B0E6
:1078200013707EE60023DFF86CB12E78CBF80030C1
:10783000029B3246D3F800900436494609F1040011
:1078400003F09CFE3B88514A1B0A63F03F0389F812
:1078500000303B88F6B289F80130138809EB060046
:10786000591C118089F803301A0A019B89F80220FB
:107870001978424BA8EB0602DFF81C8122F00702C0
:1078800019442E70C8F80020039203F001FE039AF9
:10789000B01880B202F0FCFA02F044F9374B81468E
:1078A0001E4600283FF461AE5046FFF789FC48466B
:1078B00002F070F9484602F057F9DBF80030012B6E
:1078C0003FF453AE043B012B7FF64FAE019B24F0F7
:1078D000070493F80090D8F80030C8F800409944A5
:1078E00005232B70029B1FFA89F91A683B881B0A33
:1078F00063F01F0313703B8853703B884B4501D8DE
:10790000012033E6029AA3EB090310684FEAD9027B
:107910000271D8F800202C789342B8BFC8F8003024
:10792000D8F8002006EB09012044019203F0B0FDD5
:10793000019AA01880B202F0ABFA02F0F3F8044604
:1079400000283FF412AE5046FFF73AFC204602F002
:1079500021F9204602F008F9D8F800309944DBF804
:1079600000301FFA89F9012B3FF4FFAD043B012BD6
:10797000C3D8FAE5605F0020705F0020685F0020D8
:107980000C4A00208B5F00209848002052510020B4
:10799000805F0020144A0020184A0020029B0849FA
:1079A00018683144484403F073FD38884844801B0C
:1079B00080B202F06DFA5046FFF702FCA0E700BF6C
:1079C000685F00202DE9F8438046894617464C4DF4
:1079D000002A3BD16B8A53BB0024B5F8CA30002B78
:1079E00000F08A80474803F0D9FF10B10120FFF76B
:1079F0003DFB631C40F08280B5F8CA30A3B9012476
:107A0000B8266643AF190F20A7F81290A7F8108088
:107A100002F03AFB0146384604F0C8FF06F11800B0
:107A20004021284403F0A8FF2046BDE8F88305F173
:107A3000180003F0B3FF28B96B8A002BCCD04FF0AD
:107A4000FF34CAE73846FFF711FBF5E72B8A83427C
:107A50000AD16B8A43B10F2002F016FB014628467B
:107A600004F0A9FF002840D1B5F8C83043453ED105
:107A7000B5F8CA30002B3AD00F2002F005FB0146C2
:107A8000214804F098FF90B301245FFA84F8394646
:107A90004046FFF7BBFB00281DDA6E8A4EB14CB39F
:107AA0001A4803F07BFF064618B10020FFF7DEFA04
:107AB0000646B5F8CA3043B13CB9124803F06EFF30
:107AC00018B10120FFF7D2FA0644002E0FDD394627
:107AD0004046FFF79BFB002809DDB82303FB045554
